:020000040800F2
:10000000D00A002045010008B92A0008BB2A0008D0
:10001000BF2A0008C32A0008C72A00080000000001
:10002000000000000000000000000000CB2A0008D3
:10003000CD2A000800000000CF2A0008D12A0008BD
:100040005F0100085F0100085F0100085F01000810
:100050005F0100085F0100085F0100085F01000800
:100060005F0100085F0100085F0100085F010008F0
:100070005F0100085F0100085F0100085F010008E0
:100080005F0100085F0100085F0100085F010008D0
:100090005F0100085F0100085F0100085F010008C0
:1000A0005F0100085F0100085F0100085F010008B0
:1000B0005F0100085F010008D92A00085F010008FD
:1000C0005F0100085F0100085F0100085F01000890
:1000D0005F0100085F0100085F0100080D2B0008A8
:1000E0005F0100085F0100085F0100085F01000870
:1000F0005F0100085F0100085F0100085F01000860
:100100005F0100085F0100085F0100085F0100084F
:100110005F0100085F0100085F0100085F0100083F
:100120005F0100085F0100085F0100085F0100082F
:10013000DFF80CD004F038F8004800479529000893
:10014000D00A00200648804706480047FEE7FEE741
:10015000FEE7FEE7FEE7FEE7FEE7FEE7FEE7FEE777
:1001600047020008310100080CB500200190009002
:100170006C48006840F480306A49086000BF6948F4
:10018000006800F4003000900198401C0190009835
:1001900018B90198B0F5A06FF1D16248006800F479
:1001A000003010B10120009001E000200090009884
:1001B000012843D15C48006840F010005A490860AB
:1001C0000846006820F0030008600846006840F018
:1001D0000200086053484068524948600846406839
:1001E00048600846406840F48060486008464068BF
:1001F00020F47C1048600846406840F4E8104860ED
:100200000846006840F08070086000BF45480068FC
:1002100000F000700028F9D04248406820F0030048
:10022000404948600846406840F00200486000BF0E
:100230003C48406800F00C000828F9D10CBD10B50E
:10024000FFF792FF10BD10B53648006840F001007E
:1002500034490860084640683449084031494860DC
:1002600008460068324908402E4908600846006880
:1002700020F4802008600846406820F4FE004860B2
:100280004FF41F008860FFF7DAFF4FF00060294944
:10029000086010BD10B5002100200022214B5B68D2
:1002A00003F00C0121B1042906D0082928D107E068
:1002B000214B224C236027E01F4B204C236023E07E
:1002C000184B5B6803F47010164B5B6803F48032C4
:1002D000022303EB904022B9194B4343174C236090
:1002E0000DE0104B5B6803F4003323B1144B434320
:1002F000124C236003E0104B4343104C236003E097
:100300000D4B0E4C236000BF00BF064B5B68C3F370
:1003100003130C4CE15C094B1B68CB40074C23607A
:1003200010BD000000100240002002400000FFF855
:10033000FFFFF6FE08ED00E000127A00000000204A
:1003400000093D000400002031490143314A116099
:10035000704770B5002100230F22C47804B32D4CE0
:10036000246804F4E064C4F5E064210AC1F10403E4
:10037000CA40447804FA03F1847814402143090107
:10038000254C0678A155047804F01F050124AC40E3
:1003900005786D11AD0005F1E025C5F8004109E0D3
:1003A000047804F01F050124AC401C4D067876113A
:1003B00045F8264070BD1A4A0A400243154B1B1FE0
:1003C0001A60704739B1134A121D12680243114B6B
:1003D0001B1D1A6006E00F4A121D126882430D4B66
:1003E0001B1D1A607047042808D14FF0E0210969ED
:1003F00041F004014FF0E022116107E04FF0E021ED
:10040000096921F004014FF0E022116170470000FA
:100410000000FA050CED00E000E400E080E100E0FF
:1004200080FFFF1F01460020FE4A106800F03800E0
:10043000084310607047FB49096821F00801F94A38
:10044000116011460968014311607047F549096858
:1004500021F01001F34A116011460968014311604F
:100460007047F148EF494860F04848607047EE48EF
:10047000EC494860ED4848607047EA48006940F040
:100480008000E84908617047E648006940F0800054
:10049000E449086170470420E249C96801F001019C
:1004A00009B101200EE0DF49C96801F0040109B17A
:1004B000022007E0DB49C96801F0100109B10320FF
:1004C00000E00420704700B502460423FFF7E3FF75
:1004D000034603E0FFF7DFFF0346521E012B01D165
:1004E000002AF7D102B90523184600BD30B50446ED
:1004F00004254FF43020FFF7E6FF0546042D17D101
:10050000C848006940F00200C649086108464461D5
:10051000006940F0400008614FF43020FFF7D3FF3E
:100520000546C048006941F6FD710840BD490861B3
:10053000284630BD10B504244FF43020FFF7C3FF28
:100540000446042C16D1B748006940F00400B549B0
:1005500008610846006940F0400008614FF430200F
:10056000FFF7B1FF0446AF48006941F6FB71084050
:10057000AC490861204610BD00B502460423FFF7D0
:100580008AFF034603E0FFF786FF0346521E012B56
:1005900001D1002AF7D102B90523184600BD10B5D4
:1005A00004244FF43020FFF7E7FF0446042C16D153
:1005B0009C48006940F004009A49086108460069B7
:1005C00040F0400008614FF43020FFF7D5FF0446AB
:1005D0009448006941F6FB71084092490861204641
:1005E00010BD00208F49C96901F0020109B1012045
:1005F00000E00020704730B5A5250424FFF7F1FF87
:1006000000B100254FF43020FFF75DFF0446042CB5
:100610003AD18548834988608448886008460069E3
:1006200040F0200008610846006940F04000086181
:100630004FF43020FFF747FF0446042C1BD17948C4
:10064000006941F6DF710840764908610846006993
:1006500040F01000086176480580E002FFF733FFA4
:100660000446052C10D06F48006941F6EF71084030
:100670006C49086108E0052C06D06A48006941F61B
:10068000EF71084067490861204630BD78B50646DD
:100690000C46042500200090E802FFF714FF0546F1
:1006A000042D24D15F48006940F001005D490861D4
:1006B0003480E802FFF707FF0546042D10D1B01C77
:1006C0000090200C00990880E802FFF7FCFE054628
:1006D0005448006941F6FE7108405249086106E03D
:1006E0005048006941F6FE7108404E4908612846AD
:1006F00078BD70B504460D460426F002FFF7E3FE10
:100700000646042E11D14748006940F001004549D2
:1007100008612580F002FFF7D6FE064641480069D1
:1007200041F6FE7108403F490861304670BD70B522
:1007300005460E460424E002FFF7C5FE0446042CDD
:1007400017D13948374988603848886008460069B9
:1007500040F0100008612E80E002FFF7B4FE04466E
:10076000052C06D02F48006941F6EF7108402D494D
:100770000861204670BD2DE9F04304464FF6FF7630
:100780003746B046B1460425E443E6B2C4F3072732
:10079000C4F307484FEA1469E802FFF794FE0546E0
:1007A000042D49D120481F498860204888600846A8
:1007B000006940F010000861FF2E06D01C48083088
:1007C0000680E802FFF77FFE0546042D08D1FF2FC3
:1007D00006D017480A300780E802FFF774FE054686
:1007E000042D0AD1B8F1FF0F07D011480C30A0F842
:1007F0000080E802FFF767FE0546042D0AD1B9F133
:10080000FF0F07D00A480E30A0F80090E802FFF76B
:100810005AFE0546052D0FD00248006941F6EF71DA
:10082000084007E00020024023016745AB89EFCD77
:1008300000F8FF1F664908612846BDE8F08330B51F
:10084000054604244FF43020FFF73DFE0446042CF7
:1008500041D160485E4988605F4888600846006909
:1008600040F0200008610846006940F0400008613F
:100870004FF43020FFF727FE0446042C22D15448C1
:10088000006941F6DF710840514908610846006976
:1008900040F0100008611DB100205049088002E0BE
:1008A000A5204E4908804FF43020FFF70CFE044687
:1008B000052C10D04648006941F6EF7108404449C4
:1008C000086108E0052C06D04148006941F6DF7157
:1008D00008403F490861204630BDF0B505460E4648
:1008E000174604243B483A4988603B488860E00248
:1008F000FFF7E9FD0446042C19D13548006940F0A2
:1009000010003349086147F0F80030432843334969
:10091000891C0880E002FFF7D6FD0446052C06D0AE
:100920002B48006941F6EF710840294908612046CB
:10093000F0BD2748C069800870472548006A7047A5
:1009400000202349096801F0200109B1012000E0DD
:100950000020704729B11E4A126902431C4B1A61DC
:1009600004E01B4A12698243194B1A617047014621
:100970000020012908D1164AD26902F001020AB109
:10098000012008E0002006E0114AD2680A400AB1BE
:10099000012000E0002070470D49C8607047042026
:1009A0000B49C96801F0010109B101200EE00849B5
:1009B000C96801F0040109B1022007E00449C968CF
:1009C00001F0100109B1032000E00420704700008D
:1009D0000020024023016745AB89EFCD00F8FF1FDF
:1009E00010B50446CC48844208D10121042000F00F
:1009F0002FFD0021042000F02BFD46E0C748844273
:100A000008D10121082000F023FD0021082000F07A
:100A10001FFD3AE0C248844208D10121102000F0B5
:100A200017FD0021102000F013FD2EE0BD48844288
:100A300008D10121202000F00BFD0021202000F032
:100A400007FD22E0B848844208D10121402000F08F
:100A5000FFFC0021402000F0FBFC16E0B34884427C
:100A600008D10121802000F0F3FC0021802000F05B
:100A7000EFFC0AE0AE48844207D10121801500F066
:100A8000E7FC0021A01500F0E3FC10BD10B501212A
:100A9000084600F0DDFC0021012000F0D9FC10BD6B
:100AA0002DE9F04102460025002600200023002405
:100AB000002791F803C00CF00F0591F803C00CF06B
:100AC000100CBCF1000F03D091F802C04CEA0505F0
:100AD00091F800C0BCF1000F31D0146800202BE069
:100AE0004FF0010C0CFA00F3B1F800C00CEA030659
:100AF0009E4220D183004FF00F0C0CFA03F7BC4349
:100B000005FA03FC4CEA040491F803C0BCF1280F79
:100B100006D14FF0010C0CFA00FCC2F814C00AE038
:100B200091F803C0BCF1480F05D14FF0010C0CFA4D
:100B300000FCC2F810C0401C0828D1D31460B1F8E2
:100B400000C0BCF1FF0F34DD546800202EE000F13E
:100B5000080C4FF0010808FA0CF3B1F800C00CEAD9
:100B600003069E4221D183004FF00F0C0CFA03F7CD
:100B7000BC4305FA03FC4CEA040491F803C0BCF141
:100B8000280F05D100F1080C08FA0CF8C2F81480FF
:100B900091F803C0BCF1480F07D100F1080C4FF0E9
:100BA000010808FA0CF8C2F81080401C0828CED3BF
:100BB0005460BDE8F0814FF6FF7101800221817021
:100BC0000421C17070470246002093680B400BB1AE
:100BD000012000E0002070470146886880B270471D
:100BE00002460020D3680B400BB1012000E000203A
:100BF00070470146C86880B2704701617047416123
:100C000070470AB1016100E041617047C1607047FF
:100C10004FF480320A438261816182618269826914
:100C2000704702460020434B18684FF68073184007
:100C300040EA021008433F4B186070473E49C861C4
:100C40007047F0B50A46002300240021002500F07B
:100C50000046B6F1004F02D1364EF16901E0354E43
:100C60007168C0F3034583B200F44016B6F5401F27
:100C700008D121F070612F4E766826F070662D4FF6
:100C80007E6012E000F48016B6F5801F06D10326C0
:100C900006FA05F4A14341F0706106E0460D360105
:100CA00003FA06F6B14341F0706122B1460D3601F8
:100CB00003FA06F6314300F00046B6F1004F02D1C8
:100CC0001C4EF16101E01B4E7160F0BD30B5002299
:100CD0008B071C0F0F2303FA04F2164B08338C10FA
:100CE00053F824309343134C08348D1044F82530C6
:100CF00023468C1053F824308C07240F00FA04F498
:100D000023430C4C08348D1044F8253030BD0A497B
:100D1000DC3108607047000000080140000C014011
:100D2000001001400014014000180140001C014067
:100D300000200140000001400000204210B50446A0
:100D4000F748844209D10121480500F08EFB0021BB
:100D50004FF4001000F089FB08E00121880500F045
:100D600084FB00214FF4800000F07FFB10BD2DE9D3
:100D7000F04385B004460D460026B1460427DFF84F
:100D8000A483A6884FF6C0700640684600F0D9FAE2
:100D9000DDF80880E448B8FBF0F01FFA80F946EA75
:100DA0000906A68020884FF6FE71084020800026A4
:100DB000DE49286888420CD828684000B8FBF0F06B
:100DC00087B2042F00DA04273E4309F10100208492
:100DD00027E0E8884BF6FF71884206D1286800EBCF
:100DE0004000B8FBF0F087B209E0286800EBC001D2
:100DF00001EB0010B8FBF0F087B247F48047C7F36F
:100E00000B0008B947F0010747F4004006434FF4D0
:100E1000967009FB00F04FF47A7190FBF1F0401CE2
:100E20002084A683208840F00100208026884FF689
:100E3000F5300640A8886989084306432680A889BA
:100E400029890843208105B0BDE8F08341F288314B
:100E50000160002181804BF6FF71C180002101817A
:100E600041814FF480418181704721B1028842F075
:100E70000102028004E002884FF6FE731A400280ED
:100E8000704721B1828842F40062828004E0828847
:100E90004FF2FF731A408280704721B1828842F47A
:100EA0008052828004E082884EF6FF731A4082806E
:100EB000704721B1028842F48072028004E0028807
:100EC0004FF6FF631A400280704721B1028842F456
:100ED0000072028004E002884FF6FF531A4002803D
:100EE000704721B1028842F48062028004E00288E7
:100EF0004FF6FF331A40028070470A46002181896D
:100F00004FF60173194002F0FE03194381817047C7
:100F100021B1828942F00102828104E082894FF688
:100F2000FE731A408281704721B1028842F040026C
:100F3000028004E002884FF6BF731A4002807047B7
:100F40001AB183880B43838002E083888B438380BC
:100F50007047018270470146088AC0B2704712B1DB
:100F600041F0010102E04FF6FE7319400182704723
:100F700008B50246002000900092009808440090B6
:100F80000098008808BD21B1028842F40042028026
:100F900003E00288C2F30E0202807047B1F5006FD1
:100FA00004D1028842F40062028004E002884FF219
:100FB000FF731A4002807047B1F5005F04D10288C8
:100FC00042F40052028004E002884DF6FF731A409A
:100FD0000280704721B1028842F48052028004E00E
:100FE00002884EF6FF731A4002807047B1F5006F19
:100FF00004D1028842F40062028004E002884FF2C9
:10100000FF731A400280704721B1028842F020022B
:10101000028004E002884FF6DF731A4002807047B6
:101020000146088B0012704721B1028842F010027D
:10103000028004E002884FF6EF731A400280704786
:1010400021B9028842F08002028004E002884FF653
:101050007F731A4002807047B1F5804F05D0828BB4
:101060004BF6FF731A40828303E0828B42F4804286
:101070008283704770B502460024002500230020BB
:10108000958A138B1B0445EA030626F07F4404EA85
:1010900001068E4201D1012000E0002070BD10B594
:1010A00001460020002300228B8A0A8B120443EAA7
:1010B000020424F07F4010BD0CB50246002000233E
:1010C0000193009300920B0F019321F07F41019B4C
:1010D0001BB1009B1433009303E0090C009B1833F1
:1010E0000093009B1B680B400BB1012000E0002027
:1010F0000CBD002221F07F42D3438382704730B57C
:10110000024600200023948801F0E06504EA1543BC
:1011100021F07F41948A0C4054B14BB1012008E08A
:101120000054004000127A0040420F00A0860100E7
:10113000002030BD002221F07F42D34383827047DC
:10114000DF48006840F00100DD490860084640685B
:10115000DC490840DA49486008460068DA49084036
:10116000D74908600846006820F4802008600846D7
:10117000406820F4FE0048604FF41F00886070470C
:10118000CF49096821F48031CD4A116011460968C0
:1011900021F480211160B0F5803F03D0B0F5802F9D
:1011A0000ED106E0C649096841F48031C44A116095
:1011B00007E0C349096841F4A021C14A116000E079
:1011C00000BF00BF704710B5014600220023002079
:1011D0004A11012A02D1BA4C236806E0022A02D140
:1011E000B74C236A01E0B64C636A01F01F02012488
:1011F00094401C400CB1012000E0002010BD38B527
:10120000002000900024002500BF3120FFF7DBFF05
:1012100005460098401C00900098B0F5A06F01D0E2
:10122000002DF2D03120FFF7CEFF08B1012400E0FD
:101230000024204638BD01460020A14A106820F055
:10124000F80040EAC10010607047A049086070478C
:10125000024600209A4B586820F47C1042EA0103B1
:101260001843974B58607047984908667047014685
:101270000020934A506820F00300084350607047F4
:101280008F48406800F00C007047014600208C4AEF
:10129000506820F0F000084350607047014600207D
:1012A000874A506820F4E060084350607047014668
:1012B0000020834A506820F4605040EAC10050602A
:1012C000704729B17E4A527A02437D4B5A7204E03C
:1012D0007B4A527A82437A4B5A7270477B49D831A3
:1012E0000860704701460020754A506820F440406D
:1012F0000843506070470021714A20321170704AD3
:1013000082F82010012802D004280AD104E001212B
:101310006B4A2032117005E00521694A20321170B4
:1013200000E000BF00BF704769490860704764492A
:10133000096A0143624A116270476549443908608D
:10134000704730B500210022002400235C4D6D68F9
:1013500005F00C0121B1042905D0082923D105E0AD
:101360005C4D056022E05B4D05601FE0544D6D68EB
:1013700005F47012524D6D6805F48034022505EBBA
:1013800092421CB9544D554305600BE04C4D6D68BD
:1013900005F400351DB1504D5543056002E04D4D3B
:1013A0005543056002E04B4D056000BF00BF444D52
:1013B0006D6805F0F0010909484D6B5C0568DD407A
:1013C00045603F4D6D6805F4E061090A434D6B5C73
:1013D0004568DD4085603A4D6D6805F46051C90A85
:1013E0003E4D6B5C4568DD40C560354D6D6805F46C
:1013F0004041890B3A4D6B5CC568B5FBF3F505615F
:1014000030BD29B12E4A526902432D4B5A6104E086
:101410002B4A526982432A4B5A61704729B1284AA4
:1014200092690243264B9A6104E0254A92698243FD
:10143000234B9A61704729B1214AD2690243204B5C
:10144000DA6104E01E4AD26982431D4BDA617047BB
:1014500029B11B4AD2680243194BDA6004E0184AEA
:10146000D2688243164BDA60704729B1144A126978
:101470000243134B1A6104E0114A12698243104B74
:101480001A61704712494039086070470F49C864B3
:1014900070470B49C87170470948406A40F0807036
:1014A00007494862704701460020054A92680A4091
:1014B0000AB1012000E0002070470149887270479E
:1014C000001002400000FFF8FFFFF6FE000042425D
:1014D0008004424200127A0000093D0014000020FE
:1014E0002400002010B50446FE48844208D10121A2
:1014F000C014FFF7ADFF0021E014FFF7A9FFC4E01F
:10150000B4F1804F08D101210846FFF7AEFF00215A
:101510000120FFF7AAFFB8E0F348844208D1012177
:101520000220FFF7A2FF00210220FFF79EFFACE0A0
:10153000EE48844208D101210420FFF796FF0021E4
:101540000420FFF792FFA0E0E948844208D101217E
:101550000820FFF78AFF00210820FFF786FF94E0AC
:10156000E448844208D101211020FFF77EFF0021CA
:101570001020FFF77AFF88E0DF48844208D101217C
:101580002020FFF772FF00212020FFF76EFF7CE094
:10159000DA48844208D101214014FFF759FF0021A5
:1015A0006014FFF755FF70E0D548844209D101214E
:1015B000C804FFF74DFF00214FF40020FFF748FF5C
:1015C00063E0D048844209D101210805FFF740FFBC
:1015D00000214FF48010FFF73BFF56E0CA488442D9
:1015E00009D101214805FFF733FF00214FF4001016
:1015F000FFF72EFF49E0C548844208D10121402071
:10160000FFF733FF00214020FFF72FFF3DE0C048E8
:10161000844208D101218020FFF727FF002180208C
:10162000FFF723FF31E0BB48844208D10121801538
:10163000FFF71BFF0021A015FFF717FF25E0B648B5
:10164000844209D101210804FFF702FF00214FF471
:101650008030FFF7FDFE18E0B048844209D1012137
:101660004804FFF7F5FE00214FF40030FFF7F0FECD
:101670000BE0AB48844208D101218804FFF7E8FE63
:1016800000214FF48020FFF7E3FE10BD0022028806
:10169000944B98420ED0994B98420BD0B0F1804FAA
:1016A00008D0914B984205D0904B984202D0904B75
:1016B000984204D14FF68F731A404B881A438D4BD2
:1016C000984207D08C4B984204D04FF6FF431A4003
:1016D000CB881A4302808B8883850B880385814BD6
:1016E00098420BD0854B984208D08B4B984205D03E
:1016F0008A4B984202D08A4B984201D10B7A0386DA
:1017000001238382704770B5002400220023058CDA
:101710004FF6FE7635400584028C8388048B4FF6A5
:101720008F752C40B51E2C400D882C43751E2A4009
:101730000D892A434D882A436A4DA8420BD06F4D2C
:10174000A84208D0744DA84205D0744DA84202D0DA
:10175000734DA84213D14FF6F7752A404D892A439D
:101760004FF6FB752A408D882A434FF6FF652B40C4
:101770004FF6FF552B408D892B43CD892B4383801A
:101780000483CD888586028470BD70B50024002254
:101790000023058C4FF6EF7635400584028C838854
:1017A000048B48F6FF752C404FF6FF452C400D8802
:1017B0004FF6FF7606EA05252C434FF6DF752A40E3
:1017C0000D8906EA05152A434D8806EA05152A43C0
:1017D000444DA84202D0494DA8421DD14FF67F7515
:1017E0002A404D894FF6FF7606EA05152A434FF643
:1017F000BF752A408D8806EA05152A434FF6FF3546
:101800002B404FF2FF752B408D8906EA85052B434F
:10181000CD8906EA85052B4383800483CD8805871F
:10182000028470BD70B5002400220023058C4FF6A1
:10183000FF6635400584028C8388848B4FF68F7554
:101840002C404FF6FC752C400D882C434FF6FF556D
:101850002A400D894FF6FF7606EA05252A434D8872
:1018600006EA05252A431F4DA84202D0234DA8426F
:101870001DD14FF2FF752A404D894FF6FF7606EADB
:1018800005252A434FF6FF352A408D8806EA0525AF
:101890002A434EF6FF752B404DF6FF752B408D8980
:1018A00006EA05152B43CD8906EA05152B438380EF
:1018B0008483CD888587028470BD70B500220023A3
:1018C0000024058C4EF6FF7635400584038C848811
:1018D000828B48F6FF752A404FF6FF452A400D8857
:1018E00020E00000002C01400004004000080040FF
:1018F000000C004000100040001400400034014083
:10190000004C0140005001400054014000180040CC
:10191000001C004000200040004001400044014005
:10192000004801404FF6FF7606EA05252A434DF6AA
:10193000FF752B400D8906EA05352B434D8806EAD5
:1019400005352B43FA4DA84202D0FA4DA84208D1E2
:101950004BF6FF752C408D894FF6FF7606EA85150C
:101960002C4384808283CD88A0F84050038470BDCE
:10197000828B4FF2FF331A408283828B4FF6FF73C4
:1019800003EA01231A4382837047F0B50C461546DB
:10199000002200210026078C4EF6FF7C07EA0C0788
:1019A0000784828B018C4FF6FF7707EA043640F6F6
:1019B000FF473A404FF6FF7707EA05273A434FF6CD
:1019C000FF7707EA03373A43D94FB8420ED0D94FD1
:1019D000B8420BD0B0F1804F08D0D74FB84205D0F5
:1019E000D64FB84202D0D64FB84206D14DF6FF7757
:1019F000394046F48057394305E047F6FF573940F0
:101A000044F48057394382830184F0BD828B4FF6C2
:101A1000F3731A408283828B0A4382837047F0B546
:101A20000C461546002200210026078C4FF6FF6C5D
:101A300007EA0C070784828B018C4FF6FF7707EAD1
:101A400004264FF60C773A404FF6FF7707EA031764
:101A50002F433A43B64FB8420ED0B64FB8420BD0E0
:101A6000B0F1804F08D0B44FB84205D0B34FB84260
:101A700002D0B34FB84206D14FF6FF57394046F473
:101A80008077394305E04FF2FF57394044F48077BF
:101A9000394382830184F0BD028B4FF2FF331A4039
:101AA0000283028B4FF6FF7303EA01231A4302837A
:101AB0007047F0B50C461546002200210026078C21
:101AC0004FF6EF7C07EA0C070784028B018C4FF678
:101AD000FF7707EA041640F6FF473A404FF6FF77D4
:101AE00007EA03373A434FF6FF7707EA05273A43F9
:101AF0008F4FB8420ED08F4FB8420BD0B0F1804F0D
:101B000008D08D4FB84205D08C4FB84202D08C4FD0
:101B1000B84206D14FF6DF77394046F01007394317
:101B200005E04FF65F77394044F0100739430283F0
:101B30000184F0BD028B4FF6F3731A400283028BCF
:101B40000A4302837047F0B50C4615460022002177
:101B5000068C4FF6FE773E400684028B018C4FF6D2
:101B60000C7632407E1C06EA03162E433243704E3A
:101B7000B0420ED06F4EB0420BD0B0F1804F08D0C3
:101B80006D4EB04205D06D4EB04202D06C4EB042A8
:101B900006D14FF6FD76314044F00106314305E0B1
:101BA0004FF6F576314044F001063143028301845B
:101BB000F0BD70B505460C465D4885420ED05D48C7
:101BC00085420BD0B5F1804F08D05B48854205D0E7
:101BD0005A48854202D05A48854200D100E000BFF1
:101BE000208850B92389A28861882846FFF7ABFF77
:101BF000E1882846FFF79EFF25E0208804280AD1C7
:101C00002389A28861882846FFF753FFE188284688
:101C1000FFF742FF17E0208808280AD12389A2880D
:101C200061882846FFF7FBFEE1882846FFF7EEFEB5
:101C300009E02389A28861882846FFF7A6FEE1888B
:101C40002846FFF795FE70BD2DE9F04105460C468C
:101C500000260127608808B9022600E00026A08837
:101C6000012801D1022700E001272088A0B923899B
:101C7000A28861882846FFF766FFE1882846FFF7BB
:101C800059FF23893A4631462846FFF712FFE1887B
:101C90002846FFF701FF13E02389A28861882846C0
:101CA000FFF707FFE1882846FFF7F6FE23893A464B
:101CB00031462846FFF747FFE1882846FFF73AFFFD
:101CC000BDE8F0810A884B881A438B881A43CB8879
:101CD0001A430B891A434B891A438B891A43A0F87C
:101CE000442070474FF6FF71818000210180C18040
:101CF0004180017270470021018041808180C18054
:101D0000018141818181C181704700210180418031
:101D1000012181800021C180018170470021018063
:101D200041808180C18001814181818170470000B3
:101D3000002C014000340140000400400008004035
:101D4000000C004021B1028842F00102028004E050
:101D500002884FF6FE731A400280704731B1B0F826
:101D6000442042F40042A0F8442005E0B0F84420AA
:101D7000C2F30E02A0F8442070471AB183890B43C6
:101D8000838102E083898B4383817047818270471E
:101D900041EA0203A0F8483070471AB183890B4327
:101DA000838102E083898B438381704701894FF6E9
:101DB000F8721140018170470A46002101894FF6EF
:101DC0008F73194011430181704730B504460D46A9
:101DD00029462046FFF7F0FF208940F007002081C8
:101DE00030BD2DE9F04104460D4616461F46602DD4
:101DF00006D13B46012231462046FFF75AFE05E058
:101E00003B46012231462046FFF79DFE29462046EB
:101E1000FFF7D2FF208940F007002081BDE8F08164
:101E200030B50C4600210189C9B24FF6FF7505EAAD
:101E30000325154325432943018130BD2DE9F04198
:101E400005460E4617469846002443463A46314614
:101E50002846FFF7E5FF2C894FF6F870044044F060
:101E600007044FF68F70044044F070042C81BDE8E5
:101E7000F081F0B504460D4616461F463B463246F5
:101E800029462046FFF7CCFF208940F4804020817E
:101E9000F0BD0185828270470A46002101884FF615
:101EA0008F731940114301807047F0B50C461546F9
:101EB0001E460021002200230189028B038C4FF66D
:101EC000F877394021434FF6FC473A4040F201177A
:101ED0003A434FF6DD773B404FF6FF7707EA0617A8
:101EE0002F433B43018102830384F0BD0A46002156
:101EF000018B4FF68F7319401143018370470A46D7
:101F00000021018B48F6FF7319404FF6FF7303EA77
:101F100002231943018370470A460021818B4FF643
:101F20008F7319401143818370470A460021818BCA
:101F300048F6FF7319404FF6FF7303EA0223194373
:101F40008183704721B1028842F08002028004E060
:101F500002884FF67F731A400280704721B1828851
:101F600042F00402828004E082884FF6FB731A403C
:101F70008280704721B1828842F00802828004E0AA
:101F800082884FF6F7731A408280704721B18288A9
:101F900042F00102828004E082884FF6FE731A400C
:101FA000828070470A460021018B4FF6F773194073
:101FB0001143018370470A460021018B4FF2FF73E2
:101FC00019404FF6FF7303EA022319430183704758
:101FD0000A460021818B4FF6F77319401143818324
:101FE00070470A460021818B4FF2FF7319404FF66C
:101FF000FF7303EA02231943818370470A460021D5
:10200000018B4FF6FB7319401143018370470A4659
:102010000021018B4FF6FF3319404FF6FF7303EA9F
:1020200002231943018370470A460021818B4FF632
:10203000FB7319401143818370470A460021818B4D
:102040004FF6FF3319404FF6FF7303EA022319439B
:10205000818370470A460021018B4FF67F73194038
:102060001143018370470A460021018BC1F30E0121
:102070004FF6FF7303EA02231943018370470A46B0
:102080000021818B4FF67F73194011438183704784
:102090000A460021818BC1F30E014FF6FF7303EA5C
:1020A00002231943818370470A460021018C4FF6B1
:1020B000FD7319401143018470470A460021018CC9
:1020C0004FF6F77319401143018470470A46002107
:1020D000018C4FF6DF7319404FF6FF7303EA0213CA
:1020E0001943018470470A460021018C4FF67F7323
:1020F00019404FF6FF7303EA021319430184704736
:102100000A460021018C4FF6FF5319404FF6FF732A
:1021100003EA02231943018470470A460021018C17
:102120004FF2FF7319404FF6FF7303EA022319437E
:10213000018470470A460021018C4DF6FF73194057
:102140004FF6FF7303EA023319430184704730B539
:10215000002301248C40A3B2048C9C430484048C8F
:1021600002FA01F5ADB22C43048430BD30B5002332
:1021700004248C40A3B2048C9C430484048C02FA93
:1021800001F5ADB22C43048430BD70B50346002088
:1021900000241846183001258D40ACB21D8CA54393
:1021A0001D8409B1082909D100EB6100056825F0FB
:1021B000700505600568154305600EE00D1FC5F349
:1021C0004E052844056825F4E045056005684FF68E
:1021D000FF7606EA02263543056070BD21B102880C
:1021E00042F00202028004E002884FF6FD731A40BA
:1021F0000280704721B1028842F00402028004E0AC
:1022000002884FF6FB731A400280704721B1828822
:1022100042F08002828004E082884FF67F731A4089
:102220008280704702884FF6F7731A400280028856
:102230000A430280704782884FF68F731A4082806B
:1022400082880A438280704702894FF6F8731A40E9
:10225000028102890A430281704702894FF67F7327
:102260001A40028102890A430281704781847047C3
:1022700081857047818670470187704781877047E5
:10228000A0F84010704702884FF6FF431A400280C2
:1022900002880A43028070470146888E70470146D3
:1022A000088F70470146888F70470146B1F840009B
:1022B00070470146888C70470146088D704702467A
:1022C0000020138A0B400BB1012000E00020704772
:1022D000CA430282704730B5024600200023002422
:1022E000158A05EA0103958905EA010413B10CB1C9
:1022F000012000E0002030BDCA4302827047000088
:1023000010B50446FB48844209D101218803FFF738
:102310009FF800214FF48040FFF79AF832E0F6482A
:10232000844209D101214804FFF79FF800214FF4AE
:102330000030FFF79AF825E0F048844209D10121E6
:102340008804FFF792F800214FF48020FFF78DF802
:1023500018E0EB48844209D10121C804FFF785F851
:1023600000214FF40020FFF780F80BE0E54884429D
:1023700008D101210805FFF778F800214FF48010FB
:10238000FFF773F810BD2DE9F04786B005460E46FD
:102390000024A24600BFA1460027B08900B100BFBB
:1023A0002F462C8A4CF6FF700440F08804432C82A0
:1023B000AC894EF6F3100440B08831890843718926
:1023C00008430443AC81AC8A4FF6FF400440B08917
:1023D0000443AC8201A8FEF7B4FFC648874202D18D
:1023E000DDF810A001E0DDF80CA0A88900F40040A1
:1023F00040B10AEBCA0000EB0A1031684900B0FB9B
:10240000F1F807E00AEBCA0000EB0A103168890016
:10241000B0FBF1F86420B8FBF0F00401200964215E
:1024200001FB1089A88900F4004040B1322000EB84
:10243000C900B0FBF1F000F00700044308E03220CF
:1024400000EB09106421B0FBF1F000F00F00044331
:102450002C8106B0BDE8F0874FF4165101600021D1
:102460008180C18001810C214181002181817047DF
:1024700010B502460020108A4FF2FF0318400B8867
:102480004C8823438C882343CC88234318431082F1
:1024900010BD0021018041808180C180704721B141
:1024A000828942F40052828104E082894DF6FF73F2
:1024B0001A4082817047F0B50346002400260025AB
:1024C000002040F66A17B94200D100BF1846C1F398
:1024D000421401F01F06012707FA06F5012C01D16D
:1024E0000C3004E0022C01D1103000E014301AB19D
:1024F00007682F43076002E00768AF430760F0BD3D
:102500001AB1838A0B43838202E0838A8B438382DE
:102510007047028A4FF6F0731A400282028A0A4319
:102520000282704782894FF2FF731A40828182894A
:102530000A438281704721B1828942F0020282817E
:1025400004E082894FF6FD731A4082817047028A47
:102550004FF6DF731A400282028A0A4302827047F2
:1025600021B1028A42F48042028204E0028A4BF6E0
:10257000FF731A4002827047C1F3080282807047DD
:1025800001468888C0F308007047818941F0010145
:1025900081817047028BD2B20283028B42EA012210
:1025A00002837047028B02F47F420283028B0A434C
:1025B0000283704721B1828A42F02002828204E0C5
:1025C000828A4FF6DF731A408282704721B1828A75
:1025D00042F01002828204E0828A4FF6EF731A40C2
:1025E0008282704721B1828A42F00802828204E02E
:1025F000828A4FF6F7731A408282704721B182892E
:1026000042F40042828103E08289C2F30E02828199
:10261000704721B1828A42F40062828204E0828A99
:102620004FF2FF731A4082827047828A4FF6FB7323
:102630001A408282828A0A438282704721B1828A4A
:1026400042F00202828204E0828A4FF6FD731A4051
:102650008282704702460020B1F5007F00D100BFA2
:1026600013880B400BB1012000E00020704701F4FB
:102670000072B2F5007F00D100BFCA4302807047EC
:1026800070B50246002400230025002040F66A169B
:10269000B14200D100BFC1F3421501F01F03012672
:1026A00006FA03F3012D02D19689334006E0022D8C
:1026B00002D1168A334001E0968A33400C1201267B
:1026C00006FA04F41688344013B10CB1012000E07E
:1026D000002070BD10B50022002340F66A14A1420C
:1026E00000D100BF0A1201249440A3B2DC4304804D
:1026F00010BD000000380140004400400048004088
:10270000004C00400050004010B50020AE49087059
:102710000DE0AD4909780907080EAB490A78002198
:1027200000F0ABFEA8480078401CA7490870A648F6
:1027300000780728EDDB01F024FBA44909788842E2
:1027400001D000F09CFD01F01CFB042827D007DC21
:1027500068B1012811D0022815D003283CD118E017
:10276000052827D006282BD0FF2835D12EE098A2A7
:102770009CA19D4801F056FD2FE09CA299A19A488A
:1027800001F050FD29E09CA296A1974801F04AFD76
:1027900023E09EA293A1944801F044FD1DE09FA276
:1027A00090A1914801F03EFD0220A049086004205C
:1027B000086012E09EA28BA18B4801F033FD0CE073
:1027C0009FA288A1884801F02DFD06E0A1A285A165
:1027D000854801F027FD00E000BF00BF01F0D1FAFD
:1027E0007A4908700123804A0221102000F0D3FDAD
:1027F0000020754908700FE073490978C91DCAB2F5
:10280000714909780907080E042100F036FE6E4868
:102810000078401C6C4908706B4800780328EBDB9B
:102820009148C378827891A16F4801F0FBFC0223A4
:102830006D4A04212D2000F0AEFD00206249087091
:102840000FE0614909780A31CAB25F49097809077E
:10285000080E062100F011FE5B480078401C5A4922
:102860000870594800780328EBDB7F4843780278EA
:1028700081A15D4801F0D6FC02235B4A06212D2090
:1028800000F089FD10BD10B500204F4908700DE023
:102890004D4909780907080E4B490A78002100F0D4
:1028A000ECFD49480078401C4749087046480078CC
:1028B0000728EDDB7348744908600846006873A177
:1028C0000268494801F0AEFC0223474A0321002078
:1028D00000F061FD6B480A306B49086008460068EB
:1028E0006EA10268404801F09DFC02233E4A05218A
:1028F000002000F050FD10BD10B55B4800F0EFFE69
:1029000001280FD15848C078574A927802EB8202CA
:1029100000EB4201012001F048F853480178022001
:1029200001F043F810BD10B54F4800785F490978B1
:10293000884205DA4C4880785D490978884206DB90
:102940004FF4807139481038FEF757F905E04FF41D
:10295000807136481038FEF752F910BD10B549485D
:102960000078524908704748807A5149087000F051
:10297000E7F801F0D9F900F077F900F0B6FB00F0C4
:10298000F3FA00F0BBFB00F0EDFD00F07DFC00F081
:1029900056FE10BDFFF7E2FF15E001F042F9FFF728
:1029A000C2FFFFF7A9FF00F0A2F94248007810B17A
:1029B000012806D102E0FFF766FF03E0FFF7A4FE5F
:1029C00000E000BF00BFE8E7290000202F00002042
:1029D000534D4152545F434F4E4649475F53544114
:1029E0005445000025730000F805002041505F5356
:1029F0005441544500000000574946495F4E4F542A
:102A00005F434F4E4E4543544544000057494649A5
:102A10005F434F4E4E454354454400005749464995
:102A20005F434F4E4E5F434C4F55440010080140EA
:102A3000574946495F4C4F575F504F57455200002A
:102A4000534D4152545F414E445F41505F53544196
:102A500054450000574946495F534154455F554E20
:102A60004B4E4F57000000002A00002025642E2501
:102A7000642027430000000025642E2564252025BE
:102A80005248000000A000083000002048554D5F6B
:102A9000414C41524D3A25640000000054454D50D0
:102AA0005F414C41524D3A25640000003400002043
:102AB0003500002028000020704700BFFEE700BF5F
:102AC000FEE700BFFEE700BFFEE7704770477047B4
:102AD00010B500F08EFD10BD10B501211548FFF7AF
:102AE000FAFB90B114480068401C1349086008467E
:102AF0000068B0F57A7F04D100F08CFA00200E490E
:102B0000086001210B48FFF7F7FB10BD10B540F23C
:102B100025510A48FFF7B4FD50B120210748FFF7BF
:102B2000A6FD0648FFF72CFDC4B2204601F046F88A
:102B300010BD0000000800403C000020004800409C
:102B400000B587B001210420FEF768FC01210820B0
:102B5000FEF764FC01218803FEF760FC0121880474
:102B6000FEF769FC18208DF81B0003208DF81A0071
:102B70004FF40070ADF8180006A93748FDF790FF34
:102B80004FF48060ADF8180006A93448FDF788FFBF
:102B900004208DF81B000002ADF8180006A92E488D
:102BA000FDF77EFF4FF40060ADF8180006A92B4832
:102BB000FDF776FF4FF4E13002900020ADF80C00F5
:102BC000ADF80E00ADF81000ADF814000C20ADF813
:102BD000120002A92248FFF7D6FB02A92148FFF7FD
:102BE000D2FB01211E48FFF75AFC27208DF8040074
:102BF00003208DF805008DF8060001208DF80700F0
:102C000001A8FDF7A6FB012240F225511548FFF768
:102C100052FC01211348FFF742FC07B000BD70B51C
:102C200004460D46E1B20E48FFF7A6FC00BF802126
:102C30000B48FFF70FFD0028F9D0204670BD10B5F6
:102C4000044600BF20210648FFF704FD0028F9D004
:102C50000348FFF795FC10BD00080140000C01403F
:102C6000003801400048004008B501211C20FEF753
:102C7000D5FB0120ADF8000004208DF80300694663
:102C8000AC48FDF70DFF4FF40050ADF800000420F4
:102C90008DF803006946A848FDF702FF0120ADF852
:102CA000000004208DF803006946A448FDF7F8FEF3
:102CB0000220ADF8000004208DF8030069469F480B
:102CC000FDF7EEFE08BD70B504460D4629462046C8
:102CD000FDF779FF012808D100BF29462046FDF7FE
:102CE00072FF0128F9D0012070BD0020FCE710B56B
:102CF0009348007810B101287CD19DE0914800787C
:102D000030B9022390A203216E2000F044FB05E0BD
:102D100002238DA205216E2000F03DFB0121854894
:102D2000FFF7D1FF012809D100F0A9FA8548007802
:102D300008B9012000E00020824908704FF40051DA
:102D40007D48FFF7C0FF012806D100F098FA7C48C3
:102D50000078401C7A49087001217848FFF7B3FFDA
:102D6000012830D100F08BFA7648007858B97748BE
:102D70000078401F754908700846007805280DDA6C
:102D80005A2008700AE072480078401E70490870A6
:102D9000084600780A2801DA28200870FDF761FB50
:102DA0003520FDF7F9FD6B48FDF7A0FB674801787A
:102DB0006848FDF76BFC6648017866480A30FDF705
:102DC00065FCFDF75AFB02215C48FFF77CFF0128F8
:102DD00031D100F054FA5B48007860B95B48007864
:102DE000401D5A490870084600785A280EDD052013
:102DF00008700BE097E056480078401C5449087072
:102E000008460078282801DD0A200870FDF729FB14
:102E10003520FDF7C1FD4F48FDF768FB4B480178B1
:102E20004C48FDF733FC4A4801784A480A30FDF720
:102E30002DFCFDF722FB7AE001213E48FFF743FF1E
:102E4000012827D144480078401C434908700846AF
:102E50000078012802D0022813D107E0002000F0FA
:102E60007FFF022033491431086012E0012000F096
:102E700077FF04202F49143108600220091F0860E1
:102E800007E000203449087004202A491031086006
:102E900000BF00BF4FF400512748FFF714FF01287F
:102EA00006D100F0ECF926480078401C244908704F
:102EB00001212248FFF707FF01280FD1274800789A
:102EC00008B9012000E00020244908700846007875
:102ED00010B100F04AFA01E000F052FA022117485E
:102EE000FFF7F1FE01281DD11D48007808B9012027
:102EF00000E000201A4908700846007828B1012235
:102F000011461848FEF739FF0CE000220121154850
:102F1000FEF733FF082009491031086010200860CF
:102F20002020086003E000200549087000BF00BFB2
:102F300010BD00000008014000100140000C0140DD
:102F400028000020360000203C2D00003400002026
:102F50003500002000A000083800002037000020C5
:102F6000390000200008004008B501210920FEF7C3
:102F700055FA01213F48FDF764FE01210C20FEF7C0
:102F80004DFA10208DF8030003208DF80200022076
:102F9000ADF8000069463848FDF782FD0420ADF821
:102FA000000069463448FDF77BFD0820ADF80000BD
:102FB00069463148FDF774FD0820ADF80000694608
:102FC0002E48FDF76DFD1020ADF8000069462B4836
:102FD000FDF766FD2020ADF8000069462748FDF7A3
:102FE0005FFD02212448FDF708FE04212248FDF779
:102FF00004FE08212048FDF700FE08211F48FDF7C8
:10300000FCFD10211D48FDF7F8FD20211B48FDF7B0
:10301000F4FD08BD1A480078401CC0B21849087079
:10302000012802D0022815D109E0082013491431E3
:1030300008601020091F08602020086017E00820A1
:103040000E49103108601020091D08602020091F5A
:1030500008600CE008200949103108601020086061
:103060002020091D086000200549087000BF00BF2E
:10307000704700000002300000080140000C0140D1
:103080003A00002008B54FF4A060FDF75DF91E205E
:103090008DF8000000208DF8010002208DF802005C
:1030A00001208DF803006846FDF753F908BD0EB501
:1030B00001210420FEF7BFF940F2E730ADF804002B
:1030C0004720ADF8000069460B48FEF7DFFA012102
:1030D0000948FFF7FDF8012211460748FEF74DFEAB
:1030E00001210548FEF72EFE0EBD10B5FFF7CAFF01
:1030F000FFF7DDFF10BD00000008004008B501210A
:103100000420FEF78BF94FF48070ADF8000010201A
:103110008DF8030003208DF8020069460448FDF78E
:10312000BFFC4FF480710248FDF769FD08BD000047
:103130000008014000B585B001214805FEF77BF984
:1031400001210820FEF76AF94020ADF800000320B5
:103150008DF802001C208DF803006946F848FDF741
:103160009FFC8020ADF800006946F548FDF798FC0B
:103170000020ADF808004BF6FF70ADF80A0078208B
:10318000ADF80C004FF48060ADF80E000001ADF812
:103190001000EC48019001A9EB48FDF7E8FD012182
:1031A000E948FDF762FE05B000BD70B504460D4666
:1031B00000BF4FF40031E448FDF77EFF0028F8D14E
:1031C0000121E148FDF775FE00BFE049DE48FDF74B
:1031D00051FF0028F9D000227821DB48FDF7BFFE1F
:1031E00000BFDB49D848FDF745FF0028F9D021464C
:1031F000D548FDF7AEFE00BFD549891CD248FDF782
:1032000039FF0028F8D02946CF48FDF7A2FE00BFBD
:10321000CF49891CCC48FDF72DFF0028F8D00121AB
:10322000C948FDF752FE70BD10B504462146002086
:10323000FFF7BBFF10BD10B5044621464020FFF745
:10324000B4FF10BD70B50646002415E004F1B001CE
:10325000C8B2FFF7E9FF0020FFF7E6FF1020FFF7F5
:10326000E3FF002504E03046FFF7E5FF681CC5B228
:10327000802DF8DB601CC4B2082CE7DB70BD10B5F4
:103280000020FFF7DFFF10BD10B5FFF753FFB14877
:1032900000F09DF9AE20FFF7C7FF2020FFF7C4FF25
:1032A0001020FFF7C1FFB020FFF7BEFFC820FFF7D7
:1032B000BBFF0020FFF7B8FF1020FFF7B5FF40204D
:1032C000FFF7B2FF8120FFF7AFFF0F20FFF7ACFF42
:1032D000A120FFF7A9FFA620FFF7A6FFA820FFF770
:1032E000A3FF3F20FFF7A0FFA420FFF79DFFD320FF
:1032F000FFF79AFF0020FFF797FFD520FFF794FF15
:10330000F020FFF791FFD920FFF78EFF2220FFF773
:103310008BFFDA20FFF788FF1220FFF785FFDB2005
:10332000FFF782FF2020FFF77FFF8D20FFF77CFF54
:103330001420FFF779FFAF20FFF776FFFFF79FFF1D
:1033400010BD70B504460D4605F1B001C8B2FFF7D7
:103350006BFF102141EA1410FFF766FF04F00F0124
:1033600041F00100FFF760FF70BD10B58D20FFF741
:103370005BFF1420FFF758FFAF20FFF755FF10BD8C
:1033800010B58D20FFF750FF1020FFF74DFFAE2046
:10339000FFF74AFF10BD2DE9F0470646894617465C
:1033A0009A464FF0000800240025BAF1010F03D01F
:1033B000BAF1020F5ED125E020E0785D203800F000
:1033C000FF087E2E04DD002609F1010000F0FF0950
:1033D00049463046FFF7B5FF002409E008EB4801F5
:1033E0005D4A02EB4101085DFFF725FF601CC4B296
:1033F000062CF3DBB01DC6B2681CC5B2785D002890
:10340000DBD137E032E0785D203800F0FF08782E1D
:1034100004DD002609F1010000F0FF0949463046AD
:10342000FFF78FFF002407E004EB08114B4A505CC4
:10343000FFF701FF601CC4B2082CF5DB09F10100A5
:10344000C1B23046FFF77DFF002408E004EB08110D
:103450000831424A505CFFF7EEFE601CC4B2082CF3
:10346000F4DB06F10800C6B2681CC5B2785D00281E
:10347000C9D100BF00BFBDE8F0872DE9F04180460B
:103480000E46174600247D0131464046FFF759FF9E
:1034900000BF06E03249485DFFF7CDFE6D1C601CA1
:1034A000C4B2102CF6DB701CC1B24046FFF749FFD6
:1034B000002406E02A49485DFFF7BDFE6D1C601C34
:1034C000C4B2102CF6DBBDE8F0812DE9F05F0646B2
:1034D0000F4690461C46DDF828A04FF0000BE11780
:1034E00004EB5171C910A4EBC10131B92046E117B9
:1034F00004EB5171C1F3C70506E02046E11704EB68
:103500005171C910491CCDB23D4614E029463046E0
:10351000FFF717FFB1460AE059460BF1010B1AF805
:103520000100FFF788FE09F1010000F0FF09C14525
:10353000F2DB681CC5B2A542E8DBBDE8F09F0000E5
:10354000000C0140801A06000054004001000300F6
:103550008200070040420F002E4400085646000833
:103560004000002030B527480068274AB0FBF2F140
:10357000B1F1807F01D301201DE021F07F40401E8A
:103580004FF0E022506150170F22002807DA13078E
:103590001D0E1E4B00F00F04241F1D5503E01307E2
:1035A0001C0E1B4B1C5400BF00204FF0E02290610A
:1035B00007201061002008B100BFFEE74FF0E020B7
:1035C000006920F001004FF0E021086130BD01B535
:1035D0001049009808604FF0E020006940F00100B9
:1035E0004FF0E021086100BF0A4800680028FBD1C5
:1035F00008BD0848006820B106480068401E05491B
:10360000086070470000002040420F0018ED00E005
:1036100000E400E0E005002008B501210420FDF7EA
:10362000FDFE2020ADF8000010208DF803000320DF
:103630008DF8020069465148FDF732FA08BD10B511
:10364000FFF7EAFF20214D48FDF7D7FA10BD08B576
:103650002020ADF8000048208DF803006946474857
:10366000FDF71EFA08BD08B52020ADF800001020B7
:103670008DF8030003208DF8020069463F48FDF7EE
:103680000FFA08BD70B50025002424E000BF2021FA
:103690003A48FDF798FA0028F9D02820FFF797FF5D
:1036A00020213648FDF78FFA01280DD100BF2021D7
:1036B0003248FDF788FA0128F9D0C4F1070101204A
:1036C0008840C0B2054304E0C4F1070101208840EE
:1036D0008543601CC4B2082CD8DB284670BD10B5E9
:1036E0000446FFF7C0FF20212448FDF788FA44F282
:1036F0005060FFF76CFF20212048FDF77EFA1E2066
:10370000FFF765FFFFF7A3FF20211C48FDF75BFAD9
:1037100080BB00BF20211948FDF755FA0028F9D0D9
:1037200000BF20211548FDF74EFA0128F9D0FFF718
:10373000A9FF2070FFF7A6FF6070FFF7A3FFA0703E
:10374000FFF7A0FFE070FFF79DFF2071FFF78BFFF1
:1037500020210A48FDF751FA207861780844A178C1
:103760000844E17808442179884201D1012010BD44
:103770000020FCE7FFE70020F9E700000008014017
:103780000246302A05DB392A03DCA2F13003DAB223
:103790000EE0412A05DB462A03DCA2F13703DAB248
:1037A00006E0612A04DB662A02DCA2F15703DAB2E2
:1037B00002F00F000001302905DB392903DCA1F1FB
:1037C0003003D9B20EE0412905DB462903DCA1F123
:1037D0005703D9B206E0612904DB662902DCA1F1B6
:1037E0005703D9B201F00F03184370470146002276
:1037F00009B900207047002200E0521C11F8013B7B
:10380000002BFAD11046F5E730B503460C461946B1
:103810000BB9002030BD01E001F8014B101EA2F1F0
:103820000105AAB2F8D11846F4E7F0B505460E46F0
:1038300013462A46344605B10EB90020F0BDA24217
:1038400002D9E018904208D2002103E0605C505495
:10385000481C81B29942F9DB07E0194603E0481E93
:10386000275C175481B20029F9DC2846E6E70246B6
:10387000134602B109B90020704703E011F8010BAB
:1038800002F8010B08780028F8D110701846F3E709
:10389000024601E0521C491C107828B1087818B182
:1038A00010780B789842F5D010780B78C01A7047D2
:1038B000020E0A70020C4A70020A8A70C8707047C1
:1038C00001460020087800024A78104300028A78F6
:1038D00010430002CA78104370472DE9F0410646B4
:1038E000884614460027FB480078012801D1BDE82E
:1038F000F0813146384600F07DFA0746002138460F
:1039000000F078FA07462546E01704EB1060C0F394
:103910000721384600F06EFA0746E01704EB106006
:103920000012A4EB0020C1B2384600F063FA07464B
:1039300022464146384600F063FA07463A460321DC
:10394000072000F08EFA0120D1E770B504460D463D
:103950000026E0480078012800D170BD214630469D
:1039600000F048FA06460121304600F043FA0646C8
:103970000021304600F03EFA06460121304600F0B4
:1039800039FA06462DB90021304600F033FA0646D2
:1039900004E00121304600F02DFA064632460321AC
:1039A000072000F05EFA0120D7E770B505460C4607
:1039B0000026C8480078012800D170BD294630464D
:1039C00000F018FA06460221304600F013FA0646C7
:1039D0000021304600F00EFA06460421304600F081
:1039E00009FA0646210E304600F004FA0646C4F3F2
:1039F0000741304600F0FEF90646C4F30721304681
:103A000000F0F8F90646E1B2304600F0F3F9064658
:103A100032460321072000F024FA0120CDE72DE9EA
:103A2000F0410646884614460027AA480078012837
:103A300001D1BDE8F0813146384600F0DBF9074698
:103A40000321384600F0D6F907462546E01704EB77
:103A50001060C0F30721384600F0CCF90746E017A4
:103A600004EB10600012A4EB0020C1B2384600F055
:103A7000C1F9074622464146384600F0C1F90746DB
:103A80003A460321072000F0ECF90120D1E770B598
:103A900004460E4600258F480078012800D170BDED
:103AA0002146284600F0A6F905460421284600F0E4
:103AB000A1F905460021284600F09CF905460121A0
:103AC000284600F097F905463146284600F092F95D
:103AD00005462A460321072000F0C3F90120DEE74E
:103AE00070B505460C4600267A480078012800D1BA
:103AF00070BD2946304600F07DF906460521304666
:103B000000F078F906460021304600F073F90646C9
:103B100044F0FF00FF280AD10121304600F06AF985
:103B20000646E1B2304600F065F9064632E04FF64F
:103B3000FF7020434FF6FF71884210D102213046BA
:103B400000F058F90646C4F30721304600F052F958
:103B50000646E1B2304600F04DF906461AE004216F
:103B6000304600F047F90646210E304600F042F993
:103B70000646C4F30741304600F03CF90646C4F35C
:103B80000721304600F036F90646E1B2304600F033
:103B900031F9064632460321072000F062F9012080
:103BA000A6E702461078704702461078704710B5B5
:103BB00003460C461846FFF783FE10BD46490968C8
:103BC000464A1268891A01291CD044490968424AA8
:103BD0001268914206D9414909683F4A1268891A18
:103BE00017290FD23D490A683D498A4202D3173945
:103BF0003A4A116039490968087038490968491C0E
:103C0000364A1160704730B504460D46002300BFA8
:103C100004E0E05CFFF7D2FF581C83B2AB42F8DB54
:103C200030BD70B50024002509E000F05DFA2D4993
:103C30000A880988491C2B4B19802B49885429482C
:103C400000881F2803D200F045FA0028EDDC254843
:103C50000088072800DA70BD4EE02348005D552833
:103C600002D0601C84B247E01F49601C085CAA288F
:103C700002D0601C84B23FE01B49A01C085C10B15C
:103C8000A01C84B238E01849201D085C4FF6FF7173
:103C900001EA00251449601D085CC01D284485B256
:103CA000262D02D9E01C84B226E00E480088001BB5
:103CB000A84200DA25E06A1E91B20B4A101900F002
:103CC000B0F86119491E084A515C88420ED0E01CC8
:103CD00084B211E0F0050020EC050020E80500208A
:103CE00092060020E40500205C060020204600F03B
:103CF00088F9601984B200BF27480088001B072894
:103D0000ABDA00BF24480088001B2349088008461E
:103D10000088002806DD214801191F4802881F4835
:103D2000FFF783FD00BF96E71D481E4908601E4946
:103D3000086000201D490870FF201D490870704769
:103D40001C480078704710B500201A4908700022FE
:103D50000321042000F085F810BD17480078704753
:103D600070B50446002500201349087021462846F6
:103D700000F040F8C5B22A460321052000F071F892
:103D800070BD0B480078704710B5002203210E204B
:103D900000F067F810BD0000E40500205C0600207C
:103DA0007B060020E8050020EC050020F00500203F
:103DB000F3050020F1050020F205002010B50446AF
:103DC00021460B48FEF7D8FB00BF80210848FEF7CC
:103DD00041FC0028F9D010BD7047034600BF00BF6A
:103DE00000BF70470220704708B901B100BF70479B
:103DF00000480040C84B1A181170431C98B2704715
:103E00002DE9F04104460E461546C34807192A46D7
:103E100031463846FFF709FD601984B22046BDE8F7
:103E2000F08130B502460020002305E012F8015B66
:103E30002C18E0B25C1CA3B28B42F7DB30BD70B52E
:103E400004460D4604B105B970BD03E02078FFF7C4
:103E5000B5FF641C281EA5F101018DB2F6D100BF8B
:103E6000F2E72DE9F04105460E461446002755209D
:103E7000A949891F0870AA20487008468670C57035
:103E8000201208714C71E01D84B2601E81B2A248FC
:103E9000801FFFF7C6FF0746601E9F49891F0F540A
:103EA00021469D48801FFFF7CAFFBDE8F08110B58D
:103EB00000249A48007840B900212046FFF79AFF75
:103EC000C4B201209549087004E001212046FFF7A3
:103ED00091FFC4B2224603210020FFF7C2FF10BDAC
:103EE0003EB5002400200090019002908CA0FFF7C6
:103EF0007DFC85B22A468AA12046FFF781FFC4B225
:103F000089A0FFF773FC85B22A4687A12046FFF7F8
:103F100077FFC4B289A0FFF769FC85B22A4687A162
:103F20002046FFF76DFFC4B286A0FFF75FFC85B2A5
:103F30002A4684A12046FFF763FFC4B283A0FFF79F
:103F400055FC85B22A4681A12046FFF759FFC4B22D
:103F500080A0FFF74BFC85B22A467EA12046FFF7E2
:103F60004FFFC4B27CA0FFF741FC85B22A467AA17C
:103F70002046FFF745FFC4B2224603210120FFF788
:103F800070FF3EBD10B50024224603210220FFF73A
:103F900068FF10BD70B50546FFF724FF06460024F4
:103FA00007E06E4810F81400A84200D103E0601C3E
:103FB000C4B2B442F5DB00BF204670BD2DE9F04726
:103FC0000446267894F80180A0784FF6FF7101EA44
:103FD0000025E078284485B23046FFF7DBFF07462E
:103FE0005E4800EB47004078404502D00020BDE825
:103FF000F0872A46211D3046FFF7EFFE81464846EE
:10400000F5E72DE9F05F04465549E01C11F8008002
:10401000B8F10F0F5AD2DFE808F0080B0E111C2080
:1040200024594A59595959594D00FFF740FF4EE05C
:10403000FFF756FF4BE0FFF7A5FF48E04849A01DFA
:10404000085C48490870002203210846FFF709FF71
:104050003DE001204449087039E0012043490870DF
:1040600035E03F49601D095C3D4A201D105C41EA76
:104070000027002518E0A01D2844801C3849085C52
:104080004FF6FF7101EA0026A01D2844C01C3449E8
:10409000085C304486B22144891D4819FFF78EFF21
:1040A0008346301D284485B2BD42E4DB0FE0FFF7B4
:1040B00093FE0CE02A49A01D11F80090E01D11F8B4
:1040C00000A051464846FFF78FFE00E000BF00BF4A
:1040D000BDE8F09F2648006826490968884201D05B
:1040E000012070470020FCE722490968204A126835
:1040F00091420FD01F490A681F498A4202D31739DB
:104100001C4A11601B49096808781A490968491C4A
:10411000184A11607047000098060020F40500203E
:104120007B2270223A2200006A7063356A687970D7
:10413000617676656461707400000000222C22763E
:10414000223A2200312E302E30000000222C226D27
:10415000223A0000320000007D000000464C0008BA
:104160005C060020F3050020F1050020F205002088
:10417000E8050020EC0500209206002030B50B4633
:10418000014600202022012409E021FA02F59D4287
:1041900005D303FA02F5491B04FA02F52844151E5B
:1041A000A2F10102F1DC30BD064C074D06E0E068EB
:1041B00040F0010394E8070098471034AC42F6D36E
:1041C000FBF7BAFF4C4C00086C4C000870B58C181B
:1041D00010F8015B15F0070301D110F8013B2A111B
:1041E00006D110F8012B03E010F8016B01F8016B08
:1041F0005B1EF9D12B0705D40023521E0DD401F804
:10420000013BFAE710F8013BCB1A921C03E013F8CC
:10421000015B01F8015B521EF9D5A142D8D3002001
:1042200070BD00000FB4084B10B504A902AA039892
:1042300000F01CF8044602A9002000F0F3F8204624
:1042400010BC5DF814FB00002544000802E008C81B
:10425000121F08C1002AFAD170477047002001E000
:1042600001C1121F002AFBD1704700002DE9FF4F4A
:104270008BB09A460F460546002606E025280BD04F
:1042800052460D9990476D1C761C28780028F5D170
:104290000FB03046BDE8F08F0024A04601226049EF
:1042A00000E0044315F8013F203B02FA03F0084206
:1042B000F7D128782E2817D115F8010F44F00404FF
:1042C0002A280ED06FF02F022878A0F1300109299A
:1042D0000AD808EB880102EB410100EB01086D1CD4
:1042E000F2E757F8048B6D1C287869283ED006DC6D
:1042F0000028CDD063280BD0642804D136E0732881
:1043000010D075284BD052460D999047761C85E009
:1043100017F8040B8DF8000000208DF80100E94625
:10432000012003E057F8049B4FF0FF3061074FF086
:10433000000401D40AE0641C44450DDA8442FADB2F
:1043400019F804100029F6D106E0641C8442FCDB55
:1043500019F804100029F8D1264404E019F8010BDB
:1043600052460D999047641EF8D257E001CF4FF0A6
:104370000A0B002802DA40422D2102E0210504D573
:104380002B218DF82410012103E0E10705D0202125
:10439000F7E70DF1200908910CE00021F9E701CFC2
:1043A0004FF00A0BF9E75946FFF7E8FE01F130023A
:1043B00009F8012D0028F6D1ADEB090000F1200B22
:1043C000600701D44FF00108D84502DDA8EB0B00CF
:1043D00000E000208046002406E009A85246005D67
:1043E0000D999047641C761C08988442F5DB04E024
:1043F000302052460D999047761CB8F10001A8F183
:104400000108F5DC05E019F8010B52460D999047BB
:10441000761CBBF10001ABF1010BF4DC6D1C34E741
:10442000092801000A68531C0B60107070470000D7
:10443000000000000000002F00000000070007003F
:1044400000147F147F1400242A7F2A12006264085B
:1044500013230036495522500000050300000000D8
:104460001C224100000041221C000014083E0814D8
:104470000008083E0808000000A0600000080808C6
:104480000808000060600000002010080402003EE0
:104490005149453E0000427F40000042615149467B
:1044A000002141454B31001814127F10002745456B
:1044B0004539003C4A49493000017109050300367D
:1044C0004949493600064949291E00003636000090
:1044D0000000563600000008142241000014141495
:1044E0001414000041221408000201510906003290
:1044F0004959513E007C1211127C007F49494936CE
:10450000003E41414122007F4141221C007F494938
:104510004941007F09090901003E4149497A007F6C
:104520000808087F0000417F4100002040413F0112
:10453000007F08142241007F40404040007F020C71
:10454000027F007F0408107F003E4141413E007F12
:1045500009090906003E4151215E007F09192946DB
:104560000046494949310001017F0101003F4040B7
:10457000403F001F2040201F003F4038403F006365
:104580001408146300070870080700615149454387
:1045900000007F41410000552A552A550000414145
:1045A0007F0000040201020400404040404000003F
:1045B00001020400002054545478007F48444438D9
:1045C00000384444442000384444487F0038545460
:1045D000541800087E0901020018A4A4A47C007FDE
:1045E000080404780000447D4000004080847D0081
:1045F000007F102844000000417F4000007C041828
:104600000478007C0804047800384444443800FCF2
:10461000242424180018242418FC007C080404080E
:1046200000485454542000043F444020003C404083
:10463000207C001C2040201C003C4030403C0044BA
:1046400028102844001CA0A0A07C004464544C44C2
:1046500014141414141400000000000000000000E2
:10466000000000000000000000F800000000000052
:1046700000333000000000100C06100C0600000093
:1046800000000000000040C07840C0784000043FB7
:1046900004043F040400007088FC08300000001887
:1046A00020FF211E0000F008F000E01800000021AB
:1046B0001C031E211E0000F00888700000001E214F
:1046C00023241927211010160E00000000000000FE
:1046D000000000000000000000E0180402000000DC
:1046E00000071820400000020418E000000000400D
:1046F000201807000000404080F080404000020287
:10470000010F01020200000000F0000000000101A2
:10471000011F01010100000000000000000080B046
:104720007000000000000000000000000000000118
:104730000101010101010000000000000000003043
:1047400030000000000000000000806018040060DD
:1047500018060100000000E010080810E000000F3B
:10476000102020100F00001010F8000000000020A2
:10477000203F2020000000700808088870000030EA
:104780002824222130000030088888483000001892
:10479000202020110E000000C02010F800000007AB
:1047A0000424243F240000F8088888080800001921
:1047B000212020110E0000E0108888180000000F52
:1047C000112020110E0000380808C8380800000029
:1047D000003F000000000070880808887000001C7E
:1047E000222121221C0000E010080810E000000037
:1047F000312222110F00000000C0C00000000000A4
:1048000000303000000000000080000000000000C8
:1048100080600000000000008040201008000001BF
:104820000204081020004040404040404000040482
:10483000040404040400000810204080000000204C
:10484000100804020100007048080808F000000089
:10485000003036010000C030C828E810E00007181A
:10486000272423140B000000C038E0000000203C87
:1048700023020227382008F8888888700000203F2B
:10488000202020110E00C030080808083800071842
:1048900020202010080008F808080810E000203F39
:1048A000202020100F0008F88888E8081000203F1A
:1048B00020202320180008F88888E8081000203FEE
:1048C000200003000000C030080808380000071866
:1048D0002020221E020008F808000008F808203FE7
:1048E000210101213F20000808F8080800000020ED
:1048F000203F2020000000000808F8080800C080C1
:1049000080807F00000008F888C028180800203F39
:1049100020012638200008F8080000000000203F91
:1049200020202020300008F8F800F8F80800203F88
:10493000003F003F200008F830C00008F808203F82
:10494000200007183F00E01008080810E0000F10D2
:10495000202020100F0008F808080808F000203F69
:10496000210101010000E01008080810E0000F1804
:10497000242438504F0008F8888888887000203F29
:104980002000030C30200070880808083800003828
:10499000202121221C00180808F80808180000002F
:1049A000203F2000000008F808000008F808001F59
:1049B000202020201F000878880000C83808000048
:1049C00007380E010000F80800F80008F800033C62
:1049D0000700073C0300081868808068180820302A
:1049E0002C03032C30200838C800C8380800000009
:1049F000203F2000000010080808C83808002038B0
:104A0000262120201800000000FE02020200000003
:104A1000007F40404000000C30C00000000000005B
:104A200000010638C00000020202FE000000004043
:104A300040407F0000000000040202020400000069
:104A40000000000000000000000000000000808066
:104A5000808080808080000202040000000000004E
:104A6000000000000000000080808080000000192D
:104A7000242222223F2008F8008080000000003F0E
:104A8000112020110E000000008080800000000E28
:104A9000112020201100000000808088F800000E06
:104AA000112020103F200000808080800000001F27
:104AB000222222221300008080F08888881800209B
:104AC000203F202000000000808080808000006B5C
:104AD00094949493600008F8008080800000203F48
:104AE000210000203F200080989800000000002056
:104AF000203F20200000000000809898000000C0A7
:104B00008080807F000008F8000080808000203FC7
:104B100024022D302000000808F8000000000020CA
:104B2000203F202000008080808080808000203F07
:104B300020003F20003F8080008080800000203FD8
:104B4000210000203F200000808080800000001FA6
:104B5000202020201F00808000808000000080FF37
:104B6000A12020110E000000008080808000000E37
:104B7000112020A0FF808080800080808000202085
:104B80003F212000010000008080808080000033F1
:104B9000242424241900008080E08080000000008C
:104BA000001F202000008080000000808000001F87
:104BB000202020103F208080800000808080000125
:104BC0000E300806010080800080008080800F3059
:104BD0000C030C300F0000808000808080000020DB
:104BE000312E0E3120008080800000808080808106
:104BF0008E70180601000080808080808000002177
:104C0000302C2221300000000000807C02020000D5
:104C10000000003F404000000000FF0000000000D6
:104C20000000FF0000000002027C80000000004045
:104C3000403F0000000000060101020204040000E1
:104C40000000000000000102020200006C4C00089D
:104C500000000020F8050000CC410008A44E000828
:104C6000F8050020D80400005C4200081184A24A24
:104C700004680901020304060708090C6910B6025A
:104C800004060801135A1E890F200E1010901010F0
:104C90001116101010D010101A40012808435C4063
:104CA00040504C430B11100A4020D04C4344C810D4
:104CB0002022F842FF10083F404448474070650FEB
:104CC00040807FB5F008887018081E21232C192712
:104CD000214D295F1460028C100B20102824E3243E
:104CE00028102020300F04047E0120110D41817F07
:104CF00001050931200EC2BA8282FE8280FC0615AF
:104D000044847C1720100846817F1009101312126A
:104D10005292423E1009109453321E325210567E67
:104D20004242427E4BFF4901398E100908CC4A4964
:104D3000484ACC181F7F88888482E01E2939199937
:104D40004A7E103980112BFE920132FE29801A40D2
:104D50004C1A7E0234427E402809FC242424FC257F
:104D6000262408120400101340308F80844C5525EF
:104D70002525554C808080C336363960495F79607F
:104D8000080B404448507F40407F50484460111019
:104D90000A03050911FF118905C312E012F072F828
:104DA000073D4428FF11AA44700B830138448292C6
:104DB000927401831E7C44C7017D01990562FF9AAC
:104DC0000102818A010B013669419949FA0101A169
:104DD0002A4001212A6D01212A6001791501642AE6
:104DE000DB010915072ADA01212AD801212AC0018D
:104DF0000915072A800101352A06010918071CE652
:104E00006620076A86157A861C2A8601180A808021
:104E10008686068686C0C00C0E1C0606D030764DEF
:104E20002907013113601C12FE1301021009C41876
:104E300020029E63B20E1DFF8181FFF24440300FBD
:104E400012FF180923EAAABFAAEA033F0B012DBCEF
:104E5000808080080115240E0C082A0101314904C4
:104E60001D81808081021901B91706110101090C09
:104E70000E0A14C0012178081E21404050215E080E
:104E8000012A4DFFFFC1C10409232D08151880FC1C
:104E9000F3EFF3FC80FF80EEEEEEF5FBFF9CBEB679
:044EA000B6883A0096
:0400000508000131BD
:00000001FF
