:10226A00257300534D4152545F434F4E4649475FD1
:10227A0053544154450041505F535441544500570B
:10228A004946495F4E4F545F434F4E4E454354456E
:10229A004400574946495F434F4E4E4543544544CF
:1022AA0000574946495F434F4E4E5F434C4F554492
:1022BA0000574946495F4C4F575F504F57455200A8
:1022CA00534D4152545F414E445F41505F53544114
:1022DA00544500574946495F534154455F554E4B53
:1022EA004E4F57002562642E25626420274300253D
:0C22FA0062642E256264252025524800F5
:0400C600410E9A1439
:102FF100122F74121694122B95122B4C12146F80EF
:01300100F2DC
:102F7400122F8C123046122FCD1200031200A6120B
:082F84002E651225270230869C
:102B95007B017A0E7930122043EF64017037900E75
:102BA50032E075F00AA4FFA3E07C002FFFEC35F0BE
:102BB500FE3395E0FDFC900E9E1213EC7F01122171
:102BC500C3900E30E0FFE4FCFDFE900E9E1213EC68
:062BD5007F021221C32261
:10146F00E4900E9BF0900E9BE0C3940774809480E1
:10147F005013E0FBC454F0FFE4FD122A63900E9B5F
:10148F00E004F080E0123144900E99E06F60031297
:10149F00314A123144EF04700302159014B407005F
:1014AF0040030215B39014BBF82828730214D0021E
:1014BF0014EC02150802152402153F02155A0215E5
:1014CF0075900EA074FFF0A37422F0A3746AF0A3BA
:1014DF0074FFF0A37422F0A3746D0215A9900EA0EF
:1014EF0074FFF0A37422F0A3746AF0A374FFF0A347
:1014FF007422F0A374800215A9900EA074FFF0A3BC
:10150F007422F0A3746AF0A374FFF0A37422F0A303
:10151F0074890215A9900EA074FFF0A37422F0A392
:10152F00746AF0A374FFF0A37422F0A3749C806A12
:10153F00900EA074FFF0A37422F0A3746AF0A3744A
:10154F00FFF0A37422F0A374AB804F900EA074FF32
:10155F00F0A37422F0A3746AF0A374FFF0A37422B3
:10156F00F0A374BB8034900EA074FFF0A37422F02C
:10157F00A3746AF0A374FFF0A37422F0A374CA805B
:10158F0019900EA074FFF0A37422F0A3746AF0A355
:10159F0074FFF0A37422F0A374DDF07B017A0E794F
:1015AF0035120F19123144900E99EFF07B017A0E1C
:1015BF007935900EA27401F07D027F10121CABE4FE
:1015CF00900E9BF0900E9BE0C39403748094805018
:1015DF0017E0FEC454F0FFEE2407FB7D04122A63CC
:1015EF00900E9BE004F080DC900EA074FFF0A374CB
:1015FF0022F0A374EEF0900E32E0900EA3F0900E56
:10160F0033E0900EA4F07B017A0E7935120F197B1F
:10161F00017A0E7935900EA27402F07D047F2D129F
:10162F001CABE4900E9BF0900E9BE0C39403748070
:10163F0094805017E0FEC454F0FFEE240AFB7D06A1
:10164F00122A63900E9BE004F080DC900EA074FFD2
:10165F00F0A37422F0A374F9F0900E30E0900EA373
:10166F00F0900E31E0900EA4F07B017A0E793512D6
:10167F000F197B017A0E7935900EA27402F07D0658
:05168F007F2D021CABE1
:0400CA00410F4B0097
:102F8C0053C9CFE5CA54CF4430F5CA53B3FEE5B4A8
:072F9C0054FE4401F5B422CC
:102E8D00900F4BE004F024FE600A04700EC2C0D215
:102E9D00CDD2CC22D2C0C2CDD2CC22D2C0D2CDC2C4
:062EAD00CCE4900F4BF095
:012EB30022FC
:0500CE00420F3F00009D
:102FCD0043D12075D34075D2A243D18043AF40D2B7
:022FDD00AF2221
:0300A3000229BA75
:1029BA00C0E0C0F0C083C082C0D075D000C000C0E3
:0D29CA0001C002C003C004C005C006C00764
:1029D700900F3FE475F001121389AFF0FEBE030DAF
:0D29E700BFE80A900F3FE4F0A3F0122E8D20
:1029F400D007D006D005D004D003D002D001D00037
:0B2A0400D0D0D082D083D0F0D0E032E0
:1000D30061A000000010109010101116101010D025
:1000E3001010000040404040435C4040504C4340AF
:1000F300404040004020D04C4344C8102000F8004A
:1001030000FF000000003F404448474070000F409C
:10011300807F000000000000F008887000000000ED
:10012300000000000000001E21232C1927211000CD
:10013300000000001060028C0020102824E3242813
:100143001020200004047E0120110D41817F010550
:100153000931000000C2BA8282FE8280FC06154487
:10016300847C000020100846817F00101312125275
:1001730092423E00109453321E325210007E42428D
:10018300427E0000000000FF49494949494949FFAF
:100193000000000008CC4A49484ACC18007F8888F0
:1001A3008482E00000FF121252927F00007E888852
:1001B3008482E0001060028C0000FE929292929280
:1001C300FE00000004047E01407E42427E427E42E5
:1001D300427E40000000FC242424FC252624FC2429
:1001E3002424040040308F80844C55252525554C0C
:1001F300808080000000000000000000000000007C
:10020300000000000000363600000000000000007F
:10021300000000001060028C00FE92929292929273
:10022300FE00000004047E014448507F40407F509C
:10023300484440000000FC242424FC252624FC24FC
:100243002424040040308F80844C55252525554CAB
:10025300808080000000000000000000000000001B
:10026300000000000000363600000000000000001F
:1002730000000000622805A000000000000000004C
:10028300002F000000000700070000147F147F14F4
:1002930000242A7F2A12006264081323003649557A
:1002A300225000000503000000001C224100000052
:1002B30041221C000014083E08140008083E0808E8
:1002C300000000A060000008080808080000606043
:1002D3000000002010080402003E5149453E000082
:1002E300427F4000004261514946002141454B3164
:1002F300001814127F10002745454539003C4A4930
:1003030049300001710905030036494949360006A1
:100313004949291E00003636000000005636000009
:100323000008142241000014141414140000412284
:10033300140800020151090600324959513E007C5C
:100343001211127C007F49494936003E4141412246
:10035300007F4141221C007F49494941007F09092F
:100363000901003E4149497A007F0808087F0000DF
:10037300417F4100002040413F01007F081422419A
:10038300007F40404040007F020C027F007F040852
:10039300107F003E4141413E007F09090906003EAE
:1003A3004151215E007F09192946004649494931D7
:1003B3000001017F0101003F4040403F001F2040FA
:1003C300201F003F4038403F0063140814630007B8
:1003D3000870080700615149454300007F4141000F
:1003E30000552A552A55000041417F0000040201AF
:1003F300020400404040404000000102040000208D
:1004030054545478007F48444438003844444420CA
:1004130000384444487F00385454541800087E0977
:1004230001020018A4A4A47C007F0804047800003F
:10043300447D4000004080847D00007F10284400FC
:100443000000417F4000007C04180478007C08040D
:10045300047800384444443800FC24242418001849
:10046300242418FC007C0804040800485454542035
:1004730000043F444020003C4040207C001C2040BE
:10048300201C003C4030403C004428102844001C01
:10049300A0A0A07C004464544C44141414141414F9
:1004A30065F007C800000000000000000000000025
:1004B30000000000000000F800000000000000330E
:1004C3003000000000100C06100C060000000000B5
:1004D3000000000040C07840C0784000043F04049E
:1004E3003F040400007088FC08300000001820FF5F
:1004F300211E0000F008F000E018000000211C039A
:100503001E211E0000F00888700000001E21232415
:100513001927211010160E00000000000000000033
:1005230000000000000000E01804020000000007C3
:100533001820400000020418E000000000402018CA
:1005430007000000404080F0804040000202010F9D
:1005530001020200000000F0000000000101011F81
:1005630001010100000000000000000080B07000E5
:100573000000000000000000000000000001010175
:100583000101010100000000000000000030300004
:1005930000000000000000008060180400601806DE
:1005A3000100000000E010080810E000000F102018
:1005B30020100F00001010F8000000000020203F62
:1005C30020200000007008080888700000302824EC
:1005D300222130000030088888483000001820208D
:1005E30020110E000000C02010F8000000070424B2
:1005F300243F240000F808888808080000192120F7
:1006030020110E0000E0108888180000000F112050
:1006130020110E0000380808C83808000000003F09
:10062300000000000070880808887000001C222168
:1006330021221C0000E010080810E0000000312215
:1006430022110F00000000C0C000000000000030B5
:100653003000000000000080000000000000806007
:100663000000000000008040201008000001020488
:10067300081020004040404040404000040404046F
:10068300040404000008102040800000002010082B
:1006930004020100007048080808F0000000003060
:1006A30036010000C030C828E810E00007182724EE
:1006B30023140B000000C038E0000000203C23029C
:1006C3000227382008F8888888700000203F2020FF
:1006D30020110E00C0300808080838000718202031
:1006E3002010080008F808080810E000203F202028
:1006F30020100F0008F88888E8081000203F202009
:100703002320180008F88888E8081000203F2000FC
:1007130003000000C0300808083800000718202034
:10072300221E020008F808000008F808203F2101F3
:1007330001213F20000808F8080800000020203F9E
:100743002020000000000808F8080800C08080800E
:100753007F00000008F888C028180800203F200107
:100763002638200008F8080000000000203F202061
:100773002020300008F8F800F8F80800203F003F78
:10078300003F200008F830C00008F808203F200090
:1007930007183F00E01008080810E0000F102020A1
:1007A30020100F0008F808080808F000203F210176
:1007B30001010000E01008080810E0000F182424CD
:1007C30038504F0008F8888888887000203F200040
:1007D300030C3020007088080808380000382021F6
:1007E30021221C00180808F8080818000000203F00
:1007F3002000000008F808000008F808001F202067
:1008030020201F000878880000C838080000073837
:100813000E010000F80800F80008F800033C070088
:10082300073C0300081868808068180820302C03F0
:10083300032C30200838C800C83808000000203FC7
:100843002000000010080808C838080020382621B6
:1008530020201800000000FE020202000000007FBA
:1008630040404000000C30C00000000000000001C8
:100873000638C00000020202FE00000000404040B3
:100883007F000000000004020202040000000000D8
:100893000000000000000000000000008080808055
:1008A300808080800002020400000000000000003D
:1008B30000000000000080808080000000192422D6
:1008C30022223F2008F8008080000000003F112012
:1008D30020110E000000008080800000000E112017
:1008E30020201100000000808088F800000E1120F5
:1008F30020103F200000808080800000001F222203
:1009030022221300008080F0888888180020203F6E
:10091300202000000000808080808000006B949481
:100923009493600008F8008080800000203F21003D
:1009330000203F2000809898000000000020203F06
:1009430020200000000000809898000000C08080F4
:10095300807F000008F8000080808000203F240290
:100963002D302000000808F8000000000020203F80
:10097300202000008080808080808000203F200035
:100983003F20003F8080008080800000203F2100C6
:1009930000203F200000808080800000001F202076
:1009A30020201F00808000808000000080FFA120A5
:1009B30020110E000000008080808000000E1120B6
:1009C30020A0FF80808080008080800020203F2145
:1009D30020000100000080808080800000332424F8
:1009E30024241900008080E0808000000000001FA4
:1009F300202000008080000000808000001F202055
:100A030020103F20808080000080808000010E3015
:100A13000806010080800080008080800F300C0376
:100A23000C300F0000808000808080000020312E79
:100A33000E312000808080000080808080818E7055
:100A43001806010000808080808080000021302C07
:100A53002221300000000000807C02020000000020
:100A6300003F404000000000FF00000000000000C5
:100A7300FF0000000002027C800000000040403FB5
:100A8300000000000006010102020404000000004F
:100A930000000000640001A00003050911FF118993
:100AA30005C300E000F000F800000000000000446F
:100AB30028FF11AA4400000000000000000000000D
:100AC3000000000000000000000000000000000023
:100AD3000000000000000000000000000000000013
:100AE3000000000000000000000000000000000003
:100AF3000000830138448292927401830000000055
:100B03000000007C44C7017D7D7D7D017D7D7D7D71
:100B1300017D7D7D7D01FF000000000000010001DB
:100B230000010001000100010000000000000000BE
:100B330000010100000000000000000000000000B0
:100B430000000000000000000000000000000000A2
:100B53000000000000000000000000000000000092
:100B63000000000000000000000000000000000082
:100B7300000001010000000000000101000000006E
:100B83000000000000010101010101010101010157
:100B9300010101010101010000000000000000004B
:100BA30000404040404000006D6D6D6D6D00006081
:100BB3006060606000004040404040000000000072
:100BC3000000000000000000000000000000000022
:100BD3000000000000000000000000000000000012
:100BE3000000000000000000000000000000000002
:100BF30000000000000000000000000000000000F2
:100C030000000000000000000000000000000000E1
:100C130000000000000000000000000000000000D1
:100C230000DBDBDBDBDB0000DBDBDBDBDB0000DB58
:100C3300DBDBDBDB0000DBDBDBDBDB0000DADADA70
:100C4300DADA0000D8D8D8D8D80000C0C0C0C0C0F5
:100C53000000C0C0C0C0C00000C0C0C0C0C0000011
:100C6300C0C0C0C0C0000080808080800000000041
:100C73000000000000000000000000000000000071
:100C83000000000000000000000000000000000061
:100C93000000000000000000000000000000000051
:100CA30000060606060600000606060606000006FF
:100CB30006060606000006060606060000060606E9
:100CC300E666200006068606060000060606068679
:100CD3000000060606060600008686868686808055
:100CE3008686068686C0C08686860606D030760649
:100CF30006060600000606060606000006060606A9
:100D0300060000060606060600000606060606009E
:100D130000000000000000000000000000000000D0
:100D230000000000000000000000000000000000C0
:100D330000000000000000000000000000000000B0
:100D43000000601C00FE00010200C41820029E6324
:100D5300B20E00FF8181FF00008040300F000000D1
:100D630000FF0023EAAABFAAEA033F00FF00000036
:100D73000000000000000000000000000000000070
:100D83000000000000000000000000000000000060
:100D930000000000000000000000008080800000D0
:100DA30000000080808000000000000000000000C0
:100DB3000000000000000000000000000000000030
:100DC3000E0C0800000101010101000000010000F8
:100DD3000001008180808180818080808001010109
:100DE300010000000100000001000101090C0E00D8
:100DF30000000000000000000000000000000000F0
:100E0300C0C0C0C0C0C0C0C0C0C0C0C0C0C0C0C0DF
:100E1300C0C0C0C0C0C0C000001E21404050215E01
:100E2300001E21404050215E000000000000000031
:100E330000000000000000000000000000000000AF
:100E4300000000000000000000000000000000009F
:100E5300000000FFFFC1C1FFFFC1C1FFFF00000091
:100E6300000000000000000000000000000000007F
:100E7300000000000000000000000000000000006F
:100E8300FFFF80FCF3EFF3FC80FF80EEEEEEF5FB5B
:080E9300FF9CBEB6B688FF000B
:0300C300022E0DFD
:0D2E0D00C0E0C083C082C0D075D000C007F7
:102E1A00AFBA43BA8090FE82E030E606E054BFF0D3
:042E2A00C20B8FBA8E
:0B2E2E00D007D0D0D082D083D0E0329B
:0C30BC00D20B90FE817481F0200BFD22ED
:1030020090FE86EFF0D20B90FE817482F0200BFDD1
:01301200229B
:0C30C800D20B90FE817483F0200BFD22DF
:10301300D20B90FE817484F0200BFD90FE87E0FFBD
:01302300228A
:03008E001230022B
:1000910090FE82E4F0D20B90FE817485F0200BFD7E
:0100A100223C
:102FDF0090FE827401F0D20B90FE817485F0200B6D
:022FEF00FD22C1
:0C30D400D20B90FE817486F0200BFD22D0
:0F30680075BA8090FE8074E0F090FE82E4F02252
:102F2800AE071230BC7F7812008EAF0612008EAF4B
:0A2F3800051230021200910230D49D
:0A30240012302EE4FF12302E7F1050
:07302E00AD07E4FF022F28AB
:0C2FBA0074002BF58274003AF583E0FFF0
:072FC600AD077F40022F2838
:102527001230687FAE12302E7F201230297FB01212
:10253700302E7FC81230247F4012302E7F81123018
:102547002E7F0F12302E7FA112302E7FA612302E33
:102557007FA812302E7F3F12302E7FA412302E7F9D
:10256700D312302EE4FF12302E7FD512302E7FF09B
:1025770012302E7FD912302E7F2212302E7FDA12A0
:10258700302E7F1212302E7FDB12302E7F2012303A
:102597002E7F8D12302E7F1412302E7FAF12302EE9
:0325A70002314AB4
:082F0200900E9DE0FFA3E0FD2D
:102F0A00AC07ED24B0FF12302EEC54F0C4540F4439
:0E2F1A0010FF12302EEC540F4401FF02302E37
:022DE000AC073E
:102DE200E4FBEBC3940874809480501EEB24B0FF84
:102DF200123024E4FAEAC39480748094805008AFBD
:0A2E020004122FC60A80EE0B80D8E0
:012E0C0022A3
:05314A00E4FF022DE08E
:0F3077007F8D12302E7F1412302E7FAF02302E3D
:0A30F7007F8D1230297FAE02302ECB
:101CAB00900E9DEFF0A3EDF0A3EBF0A3EAF0A3E908
:011CBB00F038
:101CBC00E4900EA3F0FCA3F0900EA2E024FE607959
:101CCC00046003021DF1900E9FE0FBA3E0FAA3E079
:101CDC00F9900EA4E0F582758300121328700302AC
:101CEC001DF124E0900EA3F0900E9DE0D3947E7431
:101CFC008094804006E4F0A3E004F0122F02E4FC90
:101D0C00ECC39406748094805020900EA3E075F080
:101D1C0006A424A0F582E5F03405F583E5822CF5C4
:101D2C0082E43583122FC20C80D6900E9DE02406DF
:101D3C00F0900EA4E004F0808D900E9FE0FBA3E0E9
:101D4C00FAA3E0F9900EA4E0F58275830012132833
:101D5C007003021DF124E0900EA3F0900E9DE0D3D1
:101D6C009478748094804006E4F0A3E004F0122F81
:101D7C0002E4FCECC39408748094805020900EA371
:101D8C00E075F010A42CF582E435F0F583E582249F
:101D9C00C8F582E5833407122FC20C80D6900E9DB5
:101DAC00E0FFA3E004FD122F0AE4FCECC3940874DA
:101DBC008094805020900EA3E075F010A42CF58236
:101DCC00E435F0F583E58224D0F582E583340712FF
:101DDC002FC20C80D6900E9DE02408F0900EA4E04B
:051DEC0004F0021D459A
:011DF10022CF
:072A6300900E9DEFF0A905A4
:102A6A00E4FCEB75F020A4FBAAF0E0FF122F0AE4C5
:102A7A00FCECC3941074809480500B122FBA0BBBD9
:102A8A0000010A0C80EB900E9DE0FFE904FD122F75
:102A9A000AE4FCECC3941074809480500B122FBA91
:082AAA000BBB00010A0C80EBDC
:012AB2002201
:0A24A200900EF0EFF0900EF2EBF058
:1024AC00E4900EF7F0A3F0900EF3E0FF54077008E1
:1024BC00EF131313541F800A900EF3E013131354ED
:1024CC001F04900EF9F0900EF9EDF0900EF3E0FF72
:1024DC00900EF9E0FDC39F5041900EF0E0FF122FDB
:1024EC000A900EF0E0FC900EF2E0FFECC39F50223D
:1024FC00900EF4E0FBA3E0FAA3E0F9A3E475F0017D
:10250C0012139F85F082F583121328FF122FC60C2D
:0A251C0080D4900EF9E004F080B1C5
:012526002292
:0E30860053917FE592547F4480F592D29722B9
:10303500E591547F4480F591E592547F4480F59263
:013045002268
:0C30E00053917FE592547F4480F59222CA
:05261F00F9EF12136742
:10262400E4900EA1F0900EA0F0900EA0E0C39408E8
:102634007480948050533097FD7F287E00122F427F
:1026440030971F2097FD900EA1E0FF900EA0E0FEB2
:10265400C374079EFEF87401088002C333D8FC4F8C
:10266400801B900EA1E0FF900EA0E0FEC374079EB5
:10267400FEF87401088002C333D8FCF45F900EA105
:0E268400F0900EA0E004F080A0900EA1E0FF08
:012692002225
:10204300900E9DEBF0A3EAF0A3E9F01230E0C29703
:102053007F127E00122F5BD2977F1E7E00122F42CB
:102063001230353097030221143097FD2097FD126B
:102073002624900E9DE0FBA3E0FAA3E0F9EF1213F0
:1020830055122624900E9DE0FBA3E0FAA3E09000F6
:102093000112261F900E9DE0FBA3E0FAA3E090003F
:1020A3000212261F900E9DE0FBA3E0FAA3E0F99035
:1020B3000003122620900E9DE0FBA3E0FAA3E0F9B3
:1020C300900004EF1213671230E0D297900E9DE058
:1020D300FBA3E0FAA3E0F9900001121328FF121307
:1020E3000F2FFFE433FE9000021213287C002FFF12
:1020F300EC3EFE9000031213282FFFEC3EFE9000EF
:1021030004121328B50707ECB506037F01227F00ED
:04211300227F002205
:03002300022C1F8D
:102C1F00C0E0C083C082C0D075D000C00730990417
:102C2F00C299C20930981DC298900ECCE0FF04F0F3
:102C3F0074CD2FF582E4340EF583E599F0900ECC28
:0F2C4F00E0540FF0D007D0D0D082D083D0E03245
:03008B00022AB393
:102AB300C0E0C0F0C083C082C0D075D000C000C0E9
:102AC30001C002C003C004C005C006C007E5AC30A6
:102AD300E10553ACFDC20AE5AC30E00853ACFEAFF0
:102AE300AD122117D007D006D005D004D003D002F1
:0F2AF300D001D000D0D0D082D083D0F0D0E0324C
:10000300759850758BCC758DFFD28E758E40E490AC
:0E0013000ECCF0900EDFF0C209D2ACD2AF22BC
:1000A60075AC1075D7CC75D6FF438E14E4900EDE72
:0D00B600F0900EDDF0C20A43AF08D2AF2279
:083128002009FDD2098F992254
:102D4B00900F39EBF0A3EAF0A3E9F0900F39E0FB19
:102D5B00A3E0FAA3E0F912130F6017900F39A3E465
:102D6B0075F00112139FA9F0FA12130FFF123128FD
:032D7B0080D922DA
:08313000200AFDD20A8FAD2236
:102D7E00900F3CEBF0A3EAF0A3E9F0900F3CE0FBE0
:102D8E00A3E0FAA3E0F912130F6017900F3CA3E42F
:102D9E0075F00112139FA9F0FA12130FFF123130C2
:032DAE0080D922A7
:04314F007F06DFFE1A
:013153002259
:09310100007F207E28DEFEDFFCC9
:01310A0022A2
:042F4200AD07AC0625
:102F4600E4FBFAC3EB9DEA9C500A12314F0BBB001F
:042F5600010A80EFFD
:012F5A002254
:042F5B00AD07AC060C
:102F5F00E4FBFAC3EB9DEA9C500A1231010BBB0054
:042F6F00010A80EFE4
:012F7300223B
:080E9B00410F4101410F42002B
:10304600E5B1543F44C0F5B1E5B2543F44C0F5B2D2
:013056002257
:102B4C0030B721900F42E070047F0180027F00902B
:102B5C000F42EFF0600543AF40800953AFBFD2C0C6
:102B6C00D2CDD2CC20B7FD30B61B900F41E0700413
:102B7C007F0180027F00900F41EFF06005123077EB
:082B8C0080031230F720B6FDB2
:012B9400221E
:050EA300420F490000B0
:10270600EFC39430400CEFD39439500674D02FFFAA
:102716008022EFC39441400CEFD394465006EF2439
:10272600C9FF8010EFC39461400AEFD3946650044A
:10273600EF24A9FFEF540FC454F0FFEDC3943040CB
:102746000CEDD39439500674D02DFD801EEDC39444
:10275600414008EDD394465002800CEDC39461408D
:102766000AEDD394665004ED24A9FDED540F4FFFF6
:012776002240
:0B25AA00900EB5EBF0A3EAF0A3E9F0FF
:1025B500A31213F800000000900EB5E0FBA3E0FAAB
:1025C500A3E04A4B7005FFFEFDFC22900EB81213E6
:1025D500F800000000900EB5E0FBA3E475F00112D1
:1025E500139FA9F0FA12130F6021900EB8E0FCA317
:1025F500E0FDA3E0FEA3E02401FFE43EFEE43DFD93
:10260500E43CFC900EB81213EC80CA900EB8E0FCC6
:09261500A3E0FDA3E0FEA3E0FF39
:01261E002299
:0B296200900EFAEBF0A3EAF0A3E9F0FE
:10296D00900F00EBF0A3EAF0A3E9F0900EFAE0FB74
:10297D00A3E0FAA3E04A4B7004FBFAF922900EFE95
:10298D0074FFF5F012139F45F06016900F00E0FBF9
:10299D00A3E475F00112139FA9F0FAED12135580FF
:0C29AD00DC900EFAE0FBA3E0FAA3E0F9D6
:0129B90022FB
:0B188C00900EBCEBF0A3EAF0A3E9F023
:10189700900EC4EBF0A3EAF0A3E9F0900EBFE0F9D5
:1018A700A3E0FAA3E0900EC7C9F0A3EAF0A3E9F01A
:1018B700900EBCE0FBA3E0FAA3E04A4B600CA3E068
:1018C700FBA3E0FAA3E04A4B70077B007A0079009C
:1018D70022900EC7E0FBA3E0FAA3E0F9C003C00221
:1018E700C001900EC4A3E0FAA3E0F9D3D082D0835D
:1018F700D0E0E99582EA95834033900EC7A3E0FADA
:10190700A3E0F9900EC2E0FEA3E0FFE92FF9EA3E5B
:10191700FAC003C002C001A3A3E0FAA3E0F9D3D041
:1019270082D083D0E0E99582EA95834056E4900E11
:10193700CAF0A3F0900EC2E0FEA3E0FF900ECAE04B
:10194700FCA3E0FDC39FEC9E40030219E7900EC77E
:10195700E0FBA3E0FAA3E0F98D828C83121328FF42
:10196700900EC4E0FBA3E0FAA3E0F98D828C83EF2D
:10197700121367900ECBE004F07006900ECAE004D5
:10198700F080B1900EC2E0FFA3E0900ECACFF0A3A3
:10199700EFF0900ECAE0FEA3E0FFD39400EE9400B0
:1019A700403E900EC7E0FBA3E0FAA3E0F9EF24FF67
:1019B700FFEE34FFFE8F82F583121328FD900EC4CD
:1019C700E0FBA3E0FAA3E0F98F828E83ED121367A1
:1019D700900ECBE024FFF0900ECAE034FFF080B207
:0B19E700900EBCE0FBA3E0FAA3E0F9C7
:0119F20022D2
:0B239200900F03EBF0A3EAF0A3E9F0CA
:10239D00900F09EBF0A3EAF0A3E9F0900F03E0FB37
:1023AD00A3E0FAA3E04A4B600CA3E0FBA3E0FAA381
:1023BD00E04A4B70077B007A00790022900F06E00F
:1023CD00FBA3E0FAA3E0F912130F6028900F06A308
:1023DD00E475F00112139FA9F0FA12130FFF900F7D
:1023ED0003E0FBA3E475F00112139FA9F0FAEF12BD
:1023FD00135580C8900F03E0FBA3E0FAA3E0F9E4C6
:0E240D00121355900F09E0FBA3E0FAA3E0F9CB
:01241B00229E
:10269300900F1AEBF0A3EAF0A3E9F0900F1AE0FB16
:1026A300A3E0FAA3E0F912130FFF6029900F1DE0D6
:1026B300FBA3E0FAA3E0F912130F6019B507169014
:1026C3000F1BE475F001121389900F1EE475F001DE
:1026D30012138980C6900F1DE0FBA3E0FAA3E0F973
:1026E30012130FFF3395E0FE900F1AE0FBA3E0FAFD
:1026F300A3E0F912130FFD3395E0FCC3ED9FFFEC4C
:032703009EFE2215
:10284C00900F311213EC900F31E0FCA3E0FDA3E0EC
:10285C00FEA3E0FF78181213C6EF121355900F3138
:10286C00E0FCA3E0FDA3E0FEA3E0FF78101213C68A
:10287C00900001EF121367900F31E0FCA3E0FDA371
:10288C00E0FEA3E0FF78081213C6900002EF1213CB
:10289C0067900F31A3A3A3E0FF900003EF0213672F
:0B1DF200900F0CEBF0A3EAF0A3E9F067
:101DFD00A31213F80000000012130FFFE4FCFDFE08
:101E0D00900F0F1213EC900F0FE0FCA3E0FDA3E079
:101E1D00FEA3E0FF78081213D9900F0F1213EC9068
:101E2D000F0FE0F8A3E0F9A3E0FAA3E0FBC000C0B8
:101E3D0001C002C003900F0CE0FBA3E0FAA3E0F990
:101E4D00900001121328FFD003D002D001D000EB77
:101E5D004FFFEAFEE9FDE8FC900F0F1213EC900F17
:101E6D000FE0FCA3E0FDA3E0FEA3E0FF7808121352
:101E7D00D9900F0F1213EC900F0FE0F8A3E0F9A318
:101E8D00E0FAA3E0FBC000C001C002C003900F0C3C
:101E9D00E0FBA3E0FAA3E0F9900002121328FFD0B3
:101EAD0003D002D001D000EB4FFFEAFEE9FDE8FCC4
:101EBD00900F0F1213EC900F0FE0FCA3E0FDA3E0C9
:101ECD00FEA3E0FF78081213D9900F0F1213EC90B8
:101EDD000F0FE0F8A3E0F9A3E0FAA3E0FBC000C008
:101EED0001C002C003900F0CE0FBA3E0FAA3E0F9E0
:101EFD00900003121328FFD003D002D001D000EBC5
:101F0D004FFFEAFEE9FDE8FC900F0F1213EC900F66
:0C1F1D000FE0FCA3E0FDA3E0FEA3E0FF4A
:011F29002295
:0D28AC00900F21EBF0A3EAF0A3E9F0AD07D7
:1028B900E4FFFE900DBAE0640170020F22122E3976
:1028C900E4FD122E39900F24E0FD122E39900F25C8
:1028D900E0FD122E39900F21E0FBA3E0FAA3E0F905
:1028E900A3E0FDA3E0900EBACDF0A3EDF01227808E
:0D28F900AB07AA067D037F071227E37F01CE
:0129060022AE
:072BDB00900F4CEDF0AC0778
:102BE200E4FFFE900DBAE0640170020F22AD041200
:102BF2002E397D01122E39E4FD122E397D01122E5D
:102C020039900F4CE07003FD80027D01122E39AB2A
:0C2C120007AA067D037F071227E37F015D
:012C1E002293
:0221C300AD0766
:1021C500E4FFFE900DBAE0640170020F22122E3971
:1021D5007D02122E39E4FD122E397D04122E39C0EE
:1021E50006C007900E9EE0FCA3E0FDA3E0FEA3E081
:1021F500FF78181213C6AD07D007D006122E39C0C6
:1022050006C007900E9EE0FCA3E0FDA3E0FEA3E060
:10221500FF78101213C6AD07D007D006122E39C0AD
:1022250006C007900E9EE0FCA3E0FDA3E0FEA3E040
:10223500FF78081213C6AD07D007D006122E39C095
:1022450006C007900E9EE0FCA3A3A3E0FFE4AD0744
:10225500D007D006122E39AB07AA067D037F0712D9
:0422650027E37F01EB
:012269002252
:0D290700900F27EBF0A3EAF0A3E9F0AD0775
:10291400E4FFFE900DBAE0640170020F22122E391A
:102924007D03122E39900F2AE0FD122E39900F2BC1
:10293400E0FD122E39900F27E0FBA3E0FAA3E0F9A3
:10294400A3E0FDA3E0900EBACDF0A3EDF012278032
:0D295400AB07AA067D037F071227E37F0172
:012961002253
:072C9D00900F4DEDF0AC07B4
:102CA400E4FFFE900DBAE0640170020F22AD04123D
:102CB4002E397D04122E39E4FD122E397D01122E97
:102CC40039900F4DE0FD122E39AB07AA067D037F24
:062CD400071227E37F0157
:012CDA0022D7
:0219F300AD073E
:1019F500E4900F18F0A3F0900DBAE0640170037F36
:101A05000122900F18E0FEA3E0FF122E39900F1867
:101A1500EEF0A3EFF07D05122E39900F18EEF0A32E
:101A2500EFF0E4FD122E39900F18EEF0A3EFF090D1
:101A35000F14E0FCA3E0FDA3E0FEA374FFFFE47B2D
:101A4500FFFAF9F8C31213B57020900F18E0FEA342
:101A5500E0FF7D01122E39900F18EEF0A3EFF09004
:101A65000F14A3A3A3E0FD021B35900F14E0FCA304
:101A7500E0FDA3A374FFFFFEE47BFF7AFFF9F8C343
:101A85001213B5900F187009E0FEA3E0FF7D0280E8
:101A950057E0FEA3E0FF7D04122E39900F18EEF0FB
:101AA500A3EFF0C006C007900F14E0FCA3E0FDA370
:101AB500E0FEA3E0FF78181213C6AD07D007D006E5
:101AC500122E39900F18EEF0A3EFF0C006C0079064
:101AD5000F14E0FCA3E0FDA3E0FEA3E0FF781012E5
:101AE50013C6AD07D007D006122E39900F18EEF0A9
:101AF500A3EFF0C006C007900F14E0FCA3E0FDA320
:101B0500E0FEA3E0FF78081213C6AD07D007D006A4
:101B1500122E39900F18EEF0A3EFF0C006C0079013
:101B25000F14E0FCA3A3A3E0FFE4AD07D007D006A4
:101B3500122E39900F18EEF0A3EFF0900F18E0FA7F
:0C1B4500A3E0FB7D037F071227E37F0174
:011B51002271
:0D30A200900F43ECF0A3EDF012130FFF228E
:0D30AF00900F45ECF0A3EDF012130FFF227F
:0B30EC00900F47ECF0A3EDF0021DF286
:10211700900E9CEFF0900E29A3E0FAA3E0AE02FF29
:10212700900E2CA3E0FAA3E0C39FFFEA9EFEEF64A4
:10213700014E70030221C2900E2CE0FBA3A3E0F92D
:10214700C003C002C001900E29A3E0FAA3E0F9D3AF
:10215700D082D083D0E0E99582EA95834023900E20
:102167002CA3E0FAA3E0AE02FF900E29A3E0FAA3A6
:10217700E09FFFEA9EFEC3EF9417EE6480948050C1
:102187003A900E29A3E0FAA3E0C3900DF29582EAF4
:102197009583400E900E297401F0A3740DF0A3747B
:1021A700DBF0900E9CE0FF900E29E0FBA3E475F0B6
:0C21B7000112139FA9F0FAEF1213552239
:102C5E00900F2CEBF0A3EAF0A3E9F0A3ECF0A3EDB8
:012C6E00F075
:102C6F00E4FDFCD3900F30E09D900F2FE09C401DB2
:102C7F00900F2CE0FBA3E0FAA3E0F98D828C831276
:0D2C8F001328FF1221170DBD00010C80D687
:012C9C002215
:10169400E4900E9DF0A3F0A3F0A3F0C3900F4AE0F2
:1016A400941F900F49E09400502A122D16D3EF9402
:1016B4000074809480401D120026900F49E475F058
:1016C4000112139FFC74BB25F0F582740D3CF58365
:1016D400EFF080C7C3900F4AE09407900F49E0945D
:1016E40000500302188B900E9DE0FEA3E0FFC39010
:1016F4000F4AE09FFD900F49E09EFCC3ED9407EC78
:101704009400500302183E74BB2FF582740D3EF50D
:1017140083E064556010900E9EE004F070C8900E53
:101724009DE004F080C0900E9DE0FEA3E0FF24BC89
:10173400F582740D3EF583E064AA6010900E9EE07D
:1017440004F070A2900E9DE004F0809A74BD2FF511
:1017540082740D3EF583E06009900E9EE02402023F
:101764001819900E9DE0FCA3E0FD24BFF582740DD2
:101774003CF583E0900E9FF0A3E4F074C02DF58255
:10178400740D3CF583E02407FFE433FE900EA0E0E3
:101794002FF0900E9FE03EF0E0FEA3E0FFD39426EE
:1017A400EE94004008900E9EE024038068900E9D05
:1017B400E0FCA3E0FDC3900F4AE09DFD900F49E0DB
:1017C4009CFCD3EF9DEE9C5071900E9DE0FEA3E037
:1017D40024BBF9740D3EFA7B01900EA0E024FFFDBA
:1017E400900E9FE034FFFC122B02AD07900E9FE099
:1017F400FAA3E0FB900E9DE0FEA3E0FF2BFBEE3A84
:10180400FA74BA2BF582740D3AF583E06D60119089
:101814000E9EE02403F0900E9DE03400F00216EAE0
:10182400121B52900E9FE0FEA3E0FF900E9EE02F4D
:10183400F0900E9DE03EF00216EA900E9DE0FEA3AD
:10184400E0FFC3900F4AE09FFD900F49E09EFCF03B
:10185400A3EDF0D39400EC9400402C74BB2FF974E6
:101864000D3EFA900EBF7401F0A3EAF0A3E9F090E4
:101874000F49E0FFA3E0900EC2CFF0A3EFF07B018D
:071884007A0D79BB12188CEC
:01188B00223A
:102E6500900E297401F0A3740DF0A374DBF0900E9D
:102E75002C7401F0A3740DF0A374DBF0E4900DBA8B
:082E8500F0900E2F74FFF02203
:06313800900DDAE0FF2219
:0E309400E4900DDAF0FBFA7D037F040227E3DF
:06313E00900DB9E0FF2234
:022FA300AD0778
:102FA500E4FF900DB9F0FE122E39EFFB7A007D0398
:052FB5007F050227E387
:06314400900E2FE0FF22B7
:0A310B00E4FBFA7D037F0E0227E3C8
:070EA800440F3501020202B4
:0331540002313015
:0100210022BC
:0B305700900EB2EBF0A3EAF0A3E9F04A
:05306200900EB7E0FF35
:013067002246
:033157007F0222D2
:09311F00900EAAEFF0A3EDF022DE
:102CDB007B2270223A22006A7063356A68797061D0
:102CEB007676656461707400222C2276223A22007B
:102CFB00312E302E3000222C226D223A0032007DF4
:0B2D0B000000000000000000000000BD
:040EAF00410DB80039
:082E3900900EAAEEF0A3EFF0E9
:102E410024F8F9740D3EFA7B01ED121355900EAB87
:102E5100E004F07006900EAAE004F0900EAAE0FEE5
:032E6100A3E0FFEC
:012E6400224B
:09277700900EAAE0FF7E007BFF3A
:10278000900EB7EBF0A3EAF0A3E9F0900EB5EEF0EF
:03279000A3EFF0C4
:1027930024F8F9740D3EFA7B01C002C001A3E0F9ED
:1027A300A3E0FAA3E0900EBFC9F0A3EAF0A3E9F017
:1027B300900EBAE0FFA3E0900EC2CFF0A3EFF0D0EB
:1027C30001D00212188C900EBAE0FEA3E0FF900E27
:0F27D300B6E02FF0900EB5E03EF0E0FEA3E0FF81
:0127E20022D4
:102B0200900EB7EBF0A3EAF0A3E9F0A3ECF0A3ED8B
:012B1200F0D2
:102B1300E4A3F0FFFED3900EBBE09F900EBAE09EBD
:102B23004021900EB7E0FBA3E475F00112139FA9B7
:102B3300F0FA12130FFD900EBCE02DF00FBF000151
:082B43000E80D2900EBCE0FFF1
:012B4B002267
:102A0F00900EB7EBF0A3EAF0A3E9F0A3ECF0A3ED7F
:102A1F00F0900EB7E0FBA3E0FAA3E04A4B6034A3BB
:102A2F00E07002A3E0602C900EBA74FFF5F0121361
:102A3F009F45F0601E900EB7E0FBA3E0FAA3E0F90C
:102A4F0012130FFF123154900EB8E475F0011213E8
:042A5F008980D42274
:0827E300900EB5EAF0A3EBF043
:1027EB00900DF27455F0A374AAF0A3EDF0A3EFF0E3
:1027FB00900EB5E0FCA3E0FDEC900DF6F0EDA3F030
:10280B00900EB6E02407F0900EB5E03400F07B019B
:10281B007A0D79F2A3E024FFFD900EB5E034FFFCB6
:10282B00122B02AE07900EB5E0FCA3E0FD24F1F5F0
:10283B0082740D3CF583EFF07B017A0D79F2022A5D
:01284B000F7D
:102EB400E4FF900DB8E0700DFEFD122E39900DB8B0
:102EC4007401F080077E007D01122E39EFFB7A0039
:072ED4007D03E4FF0227E388
:101F2A00E4900EAAF078AB7C0E7D017BFF7A2D79C6
:101F3A000CFE7F0A1212E97BFF7A2C79DB1225AAA2
:101F4A00900EBAEEF0A3EFF07A2C79DB1227779095
:101F5A000EAAEFF07BFF7A2C79E21225AA900EBA2C
:101F6A00EEF0A3EFF07A2C79E2122777900EAAEF1F
:101F7A00F07BFF7A2C79F31225AA900EBAEEF0A321
:101F8A00EFF0900EAAE0FF7E007BFF7A2C79F31225
:101F9A002780900EAAEFF07BFF7A2C79FB1225AAF4
:101FAA00900EBAEEF0A3EFF0900EAAE0FF7E007B4F
:101FBA00FF7A2C79FB122780900EAAEFF07BFF7A2A
:101FCA002D79011225AA900EBAEEF0A3EFF0900E29
:101FDA00AAE0FF7E007BFF7A2D7901122780900EFE
:101FEA00AAEFF07BFF7A2D79081225AA900EBAEE95
:101FFA00F0A3EFF0900EAAE0FF7E007BFF7A2D7926
:10200A0008122780900EAAEFF07BFF7A2D790A1228
:10201A0025AA900EBAEEF0A3EFF0900EAAE0FF7E8A
:10202A00007BFF7A2D790A122780900EAAEFF0FB27
:09203A007A007D037F010227E317
:0A311500E4FBFA7D037F020227E3CA
:052DB100900EB1EFF0EF
:102DB600123157E4FEEEC39F501D75F002EEA424B7
:102DC60035F582E5F0340FF583E0FD900EB1E0FCB9
:092DD600ED6C60030E80DEAF0617
:012DDF0022D1
:0B241C00900EAAEBF0A3EAF0A3E9F099
:1024270012130F900EADF0FD900001121328900EBD
:10243700AEF0900002121328900EAFF0A3E4F090D4
:102447000003121328FF900EB0E02FF0900EAFE0BC
:102457003400F0AF05122DB175F002EFA42436F564
:1024670082E5F0340FF583E0FF900EAEE06F600376
:102477007F0022900EADE0FF900EAAE0FBA3E0FAEA
:10248700A3E02404F9E43AFA900EAFE0FDA3E0904C
:0A2497000EB5CDF0A3EDF0123057A2
:0124A1002218
:081B5200900EA1EEF0A3EFF0EC
:101B5A00900EA1E0FEA3E024BEF582740D3EF5834B
:101B6A00E0FF1214291B8E001B91011B94021B9784
:101B7A00031BB6041BBB051BC2061C82081C850E70
:101B8A0000001CAA022EB4021F2A023115900EA1CF
:101B9A00E0FEA3E024C1F582740D3EF583E0900EC9
:101BAA002FF0E4FBFA7D037F030227E3900DDA802E
:101BBA0003900DB97401F022900EA1E0FCA3E0FDA0
:101BCA0024BFF582740D3CF583E0FE74C02DF582C6
:101BDA00740D3CF583E0FDEDFF900EA8EEF0A3EF47
:101BEA00F0E4900EA6F0A3F0900EA8E0FEA3E0FFAA
:101BFA00C3900EA7E09F900EA6E09E4003021CAA87
:101C0A00E0FEA3E0FF900EA1E0FCA3E0FD2FFBECB9
:101C1A003EFA74C32BF582740D3AF583E0900EA355
:101C2A00F0A3E4F074C42BF582740D3AF583E0FF57
:101C3A00900EA4E02FF0900EA3E03400F074C12DB2
:101C4A00F9740D3CFA7B01900EA6E0FEA3E029F997
:101C5A00EA3EFA12241C900EA5EFF0900EA4E0249E
:101C6A0004FF900EA3E03400FE900EA7E02FF09040
:101C7A000EA6E03EF0021BF2020021900EA1E0FE49
:101C8A00A3E0FF24C1F582740D3EF583E0FD74C222
:101C9A002FF582740D3EF583E0FEAF05FD12311F6C
:011CAA002217
:102D1600900E2CE0FBA3E0FAA3E0F9C003C002C0CA
:102D260001900E29E0FBA3E0FAA3E0F9D082D0835C
:102D3600D0E06B7008E965827003EA658360037F03
:052D460001227F0022C4
:10002600900E29E0FBA3E0FAA3E0F9C003C002C0EA
:1000360001A3E0FBA3E0FAA3E0F9D082D083D0E0ED
:100046006B7008E965827003EA65836035900E2C53
:10005600A3E0FAA3E0C3900DF29582EA9583400EE1
:10006600900E2C7401F0A3740DF0A374DBF0900EC7
:100076002CE0FBA3E475F00112139FA9F0FA12130A
:020086000FFF6A
:010088002255
:03000000022306D2
:0C230600787FE4F6D8FD75812102234D9C
:10121900E709F608DFFA8046E709F208DFFA803EB7
:1012290088828C83E709F0A3DFFA8032E309F608A4
:10123900DFFA8078E309F208DFFA807088828C830C
:10124900E309F0A3DFFA806489828A83E0A3F608C0
:10125900DFFA805889828A83E0A3F208DFFA804C9A
:1012690080D280FA80C680D4806980F28033801071
:1012790080A680EA809A80A880DA80E280CA8033DA
:1012890089828A83ECFAE493A3C8C582C8CCC58352
:10129900CCF0A3C8C582C8CCC583CCDFE9DEE78022
:1012A9000D89828A83E493A3F608DFF9ECFAA9F0A1
:1012B900EDFB2289828A83ECFAE0A3C8C582C8CCF7
:1012C900C583CCF0A3C8C582C8CCC583CCDFEADE10
:1012D900E880DB89828A83E493A3F208DFF980CC72
:1012E90088F0EF60010E4E60C388F0ED2402B4046B
:1012F9000050B9F582EB2402B4040050AF23234512
:06130900822390126973BB
:10130F00BB010689828A83E0225002E722BBFE02DC
:09131F00E32289828A83E493220F
:10132800BB010CE58229F582E5833AF583E022507A
:1013380006E92582F8E622BBFE06E92582F8E222C4
:0D134800E58229F582E5833AF583E49322DE
:10135500BB010689828A83F0225002F722BBFE0177
:02136500F32271
:10136700F8BB010DE58229F582E5833AF583E8F0BC
:10137700225006E92582C8F622BBFE05E92582C868
:02138700F22250
:10138900C5F0F8A3E028F0C5F0F8E58215827002EF
:061399001583E038F0228C
:10139F00A3F8E0C5F025F0F0E58215827002158301
:0613AF00E0C838F0E8225E
:1013B500EB9FF5F0EA9E42F0E99D42F0E89C45F08E
:0113C5002205
:1013C600E8600FECC313FCED13FDEE13FEEF13FF05
:0313D600D8F12229
:1013D900E8600FEFC333FFEE33FEED33FDEC33FC72
:0313E900D8F12216
:0C13EC00ECF0A3EDF0A3EEF0A3EFF02274
:1013F800A8828583F0D083D08212140F12140F12A2
:10140800140F12140FE473E493A3C583C5F0C583C6
:10141800C8C582C8F0A3C583C5F0C583C8C582C83E
:0114280022A1
:10142900D083D082F8E4937012740193700DA3A352
:1014390093F8740193F5828883E473740293686066
:06144900EFA3A3A380DF66
:100EB400E50824A0F582E4340EF583E005082290C9
:100EC4000E9D300703900EA0E475F00112144F023A
:100ED400130F2000E97F2ED2008018EF540F2490C6
:100EE400D43440D4FF30040BEF24BFB41A005003B1
:100EF4002461FFE50960021509050CE50C70020583
:100F04000B30070E900E9DE475F00112144FEF02A2
:100F14001355022EDB7403D2078003E4C207F508DD
:100F2400900E9D121466E4F509F50BF50CE50960C5
:100F3400077F20120EF780F5750AFFC201C200C2B6
:100F440002C203C205C206C208120EC3FF700D30EE
:100F540007057F00120F08AF0CAE0B22B4255FC249
:100F6400D5C204120EC3FF24D0B40A00501A75F07F
:100F74000A780930D50508B6FF0106C6A426F6206E
:100F8400D5047002D20380D924CFB41A00EF5004E0
:100F9400C2E5D204021109D20180C6D20080C0D2B7
:100FA4000280BCD2D580BAD20580B47F20120EF75D
:100FB4002002077401B5090040F1120EB4FF120EAD
:100FC400F7020F31D208D2068095120EB4FB120E2E
:100FD400B4FA120EB4F94A4B700679DA7A117BFF2F
:100FE40020022EE509602A7E008E8275830012138A
:100FF4002860060EEE650A70F0C2D5EBC0E0EAC0C8
:10100400E0E9C0E0EE121150D0E0F9D0E0FAD0E00F
:10101400FB12130FFF60AAEBC0E0EAC0E0E9C0E0F6
:10102400120EF7D0E02401F9D0E03400FAD0E0FB4E
:10103400E50A0460DCD50AD980877BFF7A11794CF4
:10104400D202809C791080027908C206C208800806
:10105400D2D5790A8004790AC2D5E50A047002F56A
:101064000AE4FAFDFEFF120EB4FC7B082001131201
:101074000EB4FD7B1030000A120EB4FE120EB4FF43
:101084007B20EC3382D592D55013C3E43000069F05
:10109400FFE49EFEE42001039DFDE49CFCE4CBF808
:1010A400C201EC700CCFCECDCCE824F8F870F380FC
:1010B40017C3EF33FFEE33FEED33FDEC33FCEB33BC
:1010C400FB994002FB0FD8E9EB300105F8D0E0C4EE
:1010D40048B201C0E00AEC4D4E4F78207B0070C24C
:1010E400EAB50A0040BCC0E0121152D0F0D0E020B2
:1010F4000104C4C0E0C4B201C0F0120EE0D0F0D5C7
:10110400F0EB020F311214290FCE531048580F9FE1
:101114004C0F9B42104C4F1054441054490FB4438D
:08112400105A55103E46103E22
:10112C0045103E4711FA500FA32D0FA72E0FCA2BB7
:10113C000FAB230FC82011E32A0F634800000FC226
:10114C003F3F3F00790AA2D5200314300509B9109E
:10115C00020404B9080104A2D5200602500104209F
:10116C0002689202B509005034C0E07F20300319A8
:10117C007F30A20272067205500F1211A9C202C270
:10118C0006C205C2087F30800F300503E9C0E012AB
:10119C000EF7300503D0E0F9D0E0B509CC300517D7
:1011AC007F30B9100C120EF77F583004077F78800F
:1011BC0003B90803120EF73002057F2D020EF77FDC
:1011CC00202008F87F2B2006F322920280CF286E75
:1011DC00756C6C2900D201120EB43001F8C2017882
:1011EC000930D50108F6020F632D50434958120EF1
:1011FC00B42403B405004001E49011F593120EE8F9
:0D120C00743A120EE8D2037509040210486E
:10231200022FF1E493A3F8E493A34003F68001F2C1
:1023220008DFF48029E493A3F85407240CC8C333CC
:10233200C4540F4420C8834004F456800146F6DF9B
:10234200E4800B01020408102040809000C6E47E65
:10235200019360BCA3FF543F30E509541FFEE49390
:10236200A360010ECF54C025E060A840B8E493A357
:10237200FAE493A3F8E493A3C8C582C8CAC583CA82
:10238200F0A3C8C582C8CAC583CADFE9DEE780BE3A
:010EB300003E
:10144F00F8E0FBA3A3E0F925F0F0E5821582700226
:07145F001583E0FA38F022CA
:09146600EBF0A3EAF0A3E9F02287
:102EDB00EFB40A07740D122EE6740A309811A899F4
:102EEB00B8130CC2983098FDA899C298B811F63057
:072EFB0099FDC299F599222F
:00000001FF
